:100000000C9434000C9449000C9449000C94490061
:100010000C9449000C9449000C9449000C9449003C
:100020000C9449000C9449000C9449000C9449002C
:100030000C9449000C9449000C9449000C9449001C
:100040000C9449000C9449000C9449000C9449000C
:100050000C9449000C9449000C9449000C944900FC
:100060000C9449000C94490011241FBECFEFD8E036
:10007000DEBFCDBF14E0A0E0B1E0ECE7F5E002C0E8
:1000800005900D92AA35B107D9F70E945C020C9435
:10009000BC020C940000CF93DF93CDB7DEB7A097DE
:1000A0000FB6F894DEBF0FBECDBF80E091E00E9496
:1000B000710183E491E00E94710189E991E00E945D
:1000C000710185EF91E00E9471018DE592E00E943F
:1000D000710188E892E00E94710189ED92E00E942E
:1000E000710160E2CE0101960E948401A0960FB6D4
:1000F000F894DEBF0FBECDBFDF91CF91089581345C
:1001000031F1823459F425B181E090E0062E01C02E
:10011000880F0A94EAF7282725B90895833459F4FB
:1001200028B181E090E0062E01C0880F0A94EAF71A
:10013000282728B90895843451F42BB181E090E048
:10014000062E01C0880F0A94EAF728272BB90895D4
:10015000813431F1823459F425B181E090E0062EEA
:1001600001C0880F0A94EAF7282B25B90895833433
:1001700059F428B181E090E0062E01C0880F0A945E
:10018000EAF7282B28B90895843451F42BB181E083
:1001900090E0062E01C0880F0A94EAF7282B2BB9AD
:1001A0000895813449F1823461F425B181E090E011
:1001B000062E01C0880F0A94EAF78095822385B93C
:1001C0000895833461F428B181E090E0062E01C0E7
:1001D000880F0A94EAF78095822388B908958434B9
:1001E00059F42BB181E090E0062E01C0880F0A94EB
:1001F000EAF7809582238BB90895813449F18234DE
:1002000061F424B181E090E0062E01C0880F0A94C9
:10021000EAF78095822384B90895833461F427B185
:1002200081E090E0062E01C0880F0A94EAF78095DD
:10023000822387B90895843459F42AB181E090E08B
:10024000062E01C0880F0A94EAF7809582238AB9A6
:100250000895813431F1823459F424B181E090E081
:10026000062E01C0880F0A94EAF7282B24B90895B6
:10027000833459F427B181E090E0062E01C0880F45
:100280000A94EAF7282B27B90895843451F42AB147
:1002900081E090E0062E01C0880F0A94EAF7282B2F
:1002A0002AB908951092C5008CE08093C400E0EC58
:1002B000F0E080818260808388E18093C10086E0E5
:1002C0008093C20008959091C00095FFFCCF809369
:1002D000C60008958091C00087FFFCCF8091C600C2
:1002E00008951F93CF93DF93EC0110E0FE01E10F1F
:1002F000F11D8081882321F00E9463011F5FF6CFEA
:10030000DF91CF911F910895CF92DF92EF92FF92EC
:100310000F931F93CF93DF937C01D12C062F10E016
:1003200001501109CD2DD0E0C017D10744F40E942F
:100330006A01C82E0E9463018DE0C8120CC0CE0D68
:10034000DF1D1882DF91CF911F910F91FF90EF90E9
:10035000DF90CF900895CE0DDF1DC882D394E2CFF9
:10036000CF93C82F64E60E949C02805D0E946301C7
:100370002AE08C2F622F0E949C02C92F0E949C02AF
:1003800080E3890F0E94630180E38C0FCF910C946E
:1003900063010F931F93CF93DF93EC0160E177E24A
:1003A0000E94A80280E3860F0E946301CE0168EEDE
:1003B00073E00E94A802CB010AE010E0B8010E949D
:1003C000A802805D0E946301CE0164E670E00E9495
:1003D000A802CB01B8010E94A802805D0E946301BF
:1003E000CE01B8010E94A802C82FCB01B8010E941B
:1003F000A802805D0E94630180E38C0FDF91CF91A2
:100400001F910F910C9463011F93CF93DF931F9261
:10041000CDB7DEB7898317E0898190E0012E02C055
:10042000959587950A94E2F780FF02C081E301C0A9
:1004300080E30E946301115078F70F90DF91CF9114
:100440001F9108958A3010F4805D0895895C0895A5
:10045000CF93C82F82958F700E9422020E94630161
:100460008C2F8F700E942202CF910C9463010F9306
:100470001F93CF93DF93D0E3C0E300E30E946A01B0
:10048000182F0E9463011D3021F00C2FCD2FD12F8A
:10049000F5CFD053005384E6089FD00D11249C2F34
:1004A000990F9056892F880F880F890F8D0FDF9134
:1004B000CF911F910F910895CF93DF93CDB7DEB702
:1004C000C054D1090FB6F894DEBF0FBECDBF0E9455
:1004D00052012FE382E49FE0215080409040E1F7F9
:1004E00000C0000085E093E00E94710183E593E085
:1004F0000E94710160E2CE0181960E9484018EE724
:1005000093E00E9471018FEB93E00E94710160E221
:10051000CE0101960E9484018981813319F40E94E1
:100520004B00EDCF823319F487E194E002C08AE2F8
:1005300094E00E947101E3CF991B79E004C0991FF8
:10054000961708F0961B881F7A95C9F7809508952D
:10055000AA1BBB1B51E107C0AA1FBB1FA617B707E9
:1005600010F0A61BB70B881F991F5A95A9F7809505
:0C0570009095BC01CD010895F894FFCFD8
:10057C000D0A202A2A2A2A2A2A2A2A2A2A2A2A2A16
:10058C002A2A2A2A2A20526F626F7420496E666FBB
:10059C00726D6174696F6E2050616765202A2A2A1A
:1005AC002A2A2A2A2A2A2A2A2A2A2A2A2A2A2A2A9F
:1005BC000D0A000D0A5465616D204D656D62657202
:1005CC00733A20416C6578616E6465722041726F7C
:1005DC0063686F2C20446F6E616C6420436C617295
:1005EC006B2C204D6162696E204B757269616E2CAB
:1005FC002043687269737469616E20442E205661C1
:10060C006C656E7469200A0D000D0A507572706F5E
:10061C0073653A2054656D706C6520556E6976650E
:10062C0072736974792C20436F6C6C656765206FED
:10063C006620456E67696E656572696E67205365E5
:10064C006E696F722044657369676E2050726F6AB1
:10065C006563742028537072696E672032303134B0
:10066C0029200D0A000D0A436F6D70657469746959
:10067C006F6E3A2041534D452053747564656E740A
:10068C002044657369676E20436F6D70657469747F
:10069C00696F6E2C20417072696C20323031342CB1
:1006AC0020526567696F6E616C20436F6D70657465
:1006BC006974696F6E2061742054656D706C65206F
:1006CC00556E69766572736974790D0A000D0A436B
:1006DC006F6E746163743A206368726973746961D4
:1006EC006E2E76616C656E74694074656D706C65A8
:1006FC002E656475200D0A000D0A50726F6A6563D1
:10070C007420576562736974653A206874747073E9
:10071C003A2F2F73697465732E676F6F676C652E34
:10072C00636F6D2F612F74656D706C652E656475CC
:10073C002F74656D706C652D72656C6965662D72B4
:10074C006F626F742F200D0A000D0A0D0A5072652E
:10075C00737320456E74657220746F2072657475A6
:10076C00726E20746F206D61696E206D656E7520E0
:10077C003E3E20200057656C636F6D6520746F20C2
:10078C007468652054656D706C652052656C696584
:10079C006620526F626F742053657269616C2043DE
:1007AC006F6D6D756E69636174696F6E202854523C
:1007BC00525343292076657273696F6E20312E3047
:1007CC000D0A00507265737320456E746572207447
:1007DC006F20636F6E74696E756520746F2074681A
:1007EC0065206D61696E206D656E750D0A000D0AD0
:1007FC000D0A2A2A2A2A2A2A2A2A2A2A2A2A2A2A8A
:10080C002A2A2A2A2A2A2A2A2A2A2A2A2A2A2A2A3C
:10081C002A2A2A2A2A2A2A2A2A2A2A2A2A2A2A2A2C
:10082C002A2A2A2A2A2A2A2A2A2A2A2A0D0A004D60
:10083C0061696E204D656E7520287479706520791C
:10084C006F75722073656C656374696F6E20616E71
:10085C00642070726573732027454E5445522729C6
:10086C000D0A0D0A312E20496E666F726D61746926
:10087C006F6E200A0D322E2052756E2054657374E3
:10088C0073200D0A0D0A004E6F7468696E6720683C
:10089C00657265207965740D0A002A2A2A2A20546B
:1008AC00686174206973206E6F7420612076616CAE
:1008BC006964206F7074696F6E2C2074727920617A
:0A08CC006761696E202A2A2A2A00BB
:00000001FF
