:100000000C9434000C9449000C9449000C94490061
:100010000C9449000C9449000C9449000C9449003C
:100020000C9449000C9449000C9449000C9449002C
:100030000C9449000C9449000C9449000C9449001C
:100040000C9449000C9449000C9449000C9449000C
:100050000C9449000C9449000C9449000C944900FC
:100060000C9449000C94490011241FBECFEFD8E036
:10007000DEBFCDBF11E0A0E0B1E0E2EFFAE002C0E8
:1000800005900D92AE31B107D9F70E9428020C9469
:1000900077050C940000813431F1823459F425B194
:1000A00081E090E0062E01C0880F0A94EAF7282725
:1000B00025B90895833459F428B181E090E0062EE3
:1000C00001C0880F0A94EAF7282728B908958434D4
:1000D00051F42BB181E090E0062E01C0880F0A9404
:1000E000EAF728272BB90895813431F1823459F485
:1000F00025B181E090E0062E01C0880F0A94EAF74E
:10010000282B25B90895833459F428B181E090E073
:10011000062E01C0880F0A94EAF7282B28B9089503
:10012000843451F42BB181E090E0062E01C0880F99
:100130000A94EAF7282B2BB90895813449F18234C7
:1001400061F425B181E090E0062E01C0880F0A9489
:10015000EAF78095822385B90895833461F428B144
:1001600081E090E0062E01C0880F0A94EAF780959E
:10017000822388B90895843459F42BB181E090E04A
:10018000062E01C0880F0A94EAF7809582238BB966
:100190000895813449F1823461F424B181E090E022
:1001A000062E01C0880F0A94EAF78095822384B94D
:1001B0000895833461F427B181E090E0062E01C0F8
:1001C000880F0A94EAF78095822387B908958434CA
:1001D00059F42AB181E090E0062E01C0880F0A94FC
:1001E000EAF7809582238AB90895813431F1823407
:1001F00059F424B181E090E0062E01C0880F0A94E2
:10020000EAF7282B24B90895833459F427B181E003
:1002100090E0062E01C0880F0A94EAF7282B27B930
:100220000895843451F42AB181E090E0062E01C093
:10023000880F0A94EAF7282B2AB908951092C5006E
:100240008CE08093C400E0ECF0E0808182608083E9
:1002500088E18093C10086E08093C2000895909168
:10026000C00095FFFCCF8093C60008958091C00028
:1002700087FFFCCF8091C60008951F93CF93DF9333
:10028000EC0110E003C00E942F011F5FFE01E10F8F
:10029000F11D80818111F7CFDF91CF911F910895DA
:1002A000CF92DF92EF92FF920F931F93CF93DF9342
:1002B0008C01D12CC62FD0E0219712C00E943601AC
:1002C000C82E0E942F018DE0C81205C0F801ED0D67
:1002D000F11D10820BC0F801EE0DFF1DC082D394FA
:1002E000ED2CF12CEC16FD064CF3F0CFDF91CF9105
:1002F0001F910F91FF90EF90DF90CF900895CF93D3
:10030000C82F64E60E947F02805D0E942F012AE0D0
:100310008C2F622F0E947F02C92F0E947F02892F9B
:10032000805D0E942F018C2F805DCF910C942F0156
:100330000F931F93CF93DF93EC0160E177E20E946C
:100340008B02862F805D0E942F01CE0168EE73E044
:100350000E948B02CB010AE010E0B8010E948B02E0
:10036000805D0E942F01CE0164E670E00E948B0246
:10037000CB01B8010E948B02805D0E942F01CE014B
:10038000B8010E948B02C82FCB01B8010E948B02DA
:10039000805D0E942F018C2F805DDF91CF911F9196
:1003A0000F910C942F011F93CF93DF931F92CDB722
:1003B000DEB7898317E0898190E0012E02C0959510
:1003C00087950A94E2F780FF02C081E301C080E3D1
:1003D0000E942F01115078F70F90DF91CF911F915C
:1003E00008958A3010F4805D0895895C0895CF9354
:1003F000C82F82958F700E94F1010E942F018C2FCF
:100400008F700E94F101CF910C942F010F931F93D5
:10041000CF93DF93D0E3C0E300E303C0D12FC82F15
:10042000092F0E943601182F0E942F019C2F8D2F1B
:100430001D30A1F7805D94E6099F800D11249AE09C
:10044000C99F800D1124DF91CF911F910F910895C5
:10045000CF93DF93CDB7DEB7AF970FB6F894DEBF7B
:100460000FBECDBF0E941E012FE78AE196E021500A
:1004700080409040E1F700C0000080E091E00E94E1
:100480003D0160E2CE0101960E94500180917C0006
:10049000806480937C0080917A00846080937A00ED
:1004A00080917A00806880937A008AE1E82E81E06A
:1004B000F82E8E010F5D1F4F80917A00806480932B
:1004C0007A0080917A0086FDFCCF8091780090912F
:1004D00079009F938F93FF92EF921F930F930E9447
:1004E0009F02C8010E943D0187E191E00E943D0109
:1004F0000F900F900F900F900F900F90DDCF991BE2
:1005000079E004C0991F961708F0961B881F7A950A
:10051000C9F780950895AA1BBB1B51E107C0AA1F0C
:10052000BB1FA617B70710F0A61BB70B881F991F94
:100530005A95A9F780959095BC01CD010895A0E149
:10054000B0E0E5EAF2E00C944E050F89188D86E0E4
:100550008C831A8309838FEF9FE79E838D83AE017F
:10056000455E5F4F588B4F87698D7A8DCE0101961E
:100570000E94C302EF81F885E00FF11F10826096A0
:10058000E4E00C946A05ACE0B0E0E9ECF2E00C9435
:1005900040057C016B018A01FC0117821682838170
:1005A00081FFC7C188248394912C8C0E9D1EF70176
:1005B0009381F60193FD859193FF81916F018823CB
:1005C00009F4B3C1853239F493FD859193FF81918C
:1005D0006F01853229F4B70190E00E94B604E7CF9D
:1005E000712C312C20E02032A8F48B3261F028F4F9
:1005F000803251F0833271F40BC08D3239F0803388
:1006000049F4216028C02260246025C0286023C0EE
:10061000206121C027FD27C0382F30533A3078F4AD
:1006200026FF06C0FAE07F9E300D1124732E13C002
:100630008AE0389E300D1124332E20620CC08E3299
:1006400021F426FD72C1206406C08C3611F42068A6
:1006500002C0883641F4F60193FD859193FF8191A4
:100660006F018111C0CF982F9554933018F090529C
:10067000933028F40C5F1F4FFFE3F9830DC08336DE
:1006800031F0833771F0833509F05EC023C0F80183
:10069000808189830E5F1F4F66246394712C5401FF
:1006A00015C02801F2E04F0E511CF801A080B18066
:1006B00026FF03C0672D70E002C06FEF7FEFC5011A
:1006C0002C870E94AB043C0182012C856FE7262E0B
:1006D000222218C02801F2E04F0E511CF801A08020
:1006E000B18026FF03C0672D70E002C06FEF7FEF7F
:1006F000C5012C870E94A0043C012C8550E8252EC2
:10070000222A820123FC1CC006C0B70180E290E0CF
:100710000E94B6043A94832D90E068167906A8F3F7
:100720000FC0F50127FC859127FE81915F01B7017C
:1007300090E00E94B60431103A94F1E06F1A71080B
:100740006114710471F7EEC0843611F0893641F5F9
:10075000F80127FF07C060817181828193810C5F5E
:100760001F4F08C060817181882777FD8095982F81
:100770000E5F1F4F4FE6642E622297FF09C09095CF
:100780008095709561957F4F8F4F9F4FF0E86F2A4E
:100790002AE030E0A4010E94E204A82EA81844C078
:1007A000853731F43FEEB32EB2222AE030E024C088
:1007B00099EFB92EB2228F36B9F020F4883509F0BE
:1007C000B4C00DC0803721F0883709F0AEC002C038
:1007D00020E1B22AB4FE0BC084E0B82A08C024FF8E
:1007E00009C0E6E0BE2A06C028E030E005C020E1EE
:1007F00030E002C020E132E0F801B7FE07C06081BE
:100800007181828193810C5F1F4F06C0608171816D
:1008100080E090E00E5F1F4FA4010E94E204A82E2A
:10082000A8188FE7682E6B2066FE0BC0362D3E7F22
:10083000A71450F464FE0AC062FC08C0362D3E7E48
:1008400005C0BA2C362D03C0BA2C01C0B72C34FF1A
:100850000DC0FE01EA0DF11D8081803311F4397E57
:1008600009C032FF06C0B394B39404C0832F8678C6
:1008700009F0B39433FD14C030FF0FC07A2CB314C9
:1008800060F4730C7B18B32C08C0B70180E290E0D1
:100890003C870E94B604B3943C85B314B0F304C003
:1008A000B31410F43B1801C0312C34FF12C0B7014F
:1008B00080E390E03C870E94B6043C8532FF1EC076
:1008C00031FF03C088E590E002C088E790E0B701FF
:1008D0000CC0832F867891F031FD02C080E201C008
:1008E0008BE237FD8DE2B70190E00E94B60406C0AE
:1008F000B70180E390E00E94B6047A94A714C0F395
:10090000AA94F401EA0DF11DB701808190E00E94E4
:10091000B604A110F5CF06C0B70180E290E00E94B6
:10092000B6043A943110F8CF42CEF70126813781D0
:1009300002C02FEF3FEFC9012C96E2E10C945C0559
:10094000FC010590615070400110D8F7809590959A
:100950008E0F9F1F0895FC0161507040019001109F
:10096000D8F7809590958E0F9F1F08950F931F9332
:10097000CF93DF938C01EB018B8181FD03C00FEFDF
:100980001FEF1AC082FF0DC02E813F818C819D8197
:100990002817390764F4E881F9810193F983E88322
:1009A00006C0E885F985802F0995892B41F78E814E
:1009B0009F8101969F838E83C801DF91CF911F9104
:1009C0000F910895FA01AA27283051F1203181F1C1
:1009D000E8946F936E7F6E5F7F4F8F4F9F4FAF4F47
:1009E000B1E03ED0B4E03CD0670F781F891F9A1F5A
:1009F000A11D680F791F8A1F911DA11D6A0F711D0E
:100A0000811D911DA11D20D009F468943F912AE019
:100A1000269F11243019305D3193DEF6CF01089501
:100A2000462F4770405D4193B3E00FD0C9F7F6CF32
:100A3000462F4F70405D4A3318F0495D31FD4052FA
:100A4000419302D0A9F7EACFB4E0A6959795879590
:100A500077956795BA95C9F700976105710508956F
:100A60009B01AC010A2E069457954795379527951B
:100A7000BA95C9F7620F731F841F951FA01D0895B3
:100A80002F923F924F925F926F927F928F929F929E
:100A9000AF92BF92CF92DF92EF92FF920F931F938C
:100AA000CF93DF93CDB7DEB7CA1BDB0B0FB6F8943D
:100AB000DEBF0FBECDBF09942A88398848885F847D
:100AC0006E847D848C849B84AA84B984C884DF80EE
:100AD000EE80FD800C811B81AA81B981CE0FD11DD2
:100AE0000FB6F894DEBF0FBECDBFED010895F894A8
:020AF000FFCF36
:100AF200507265737320456E74657220746F206343
:0E0B02006F6E74696E75650D0A002564000043
:00000001FF
