:100000000C9434000C9448000C947A000C94460034
:100010000C9446000C9446000C9446000C94460048
:100020000C9446000C9446000C9446000C94460038
:100030000C9446000C9446000C9446000C94460028
:100040000C9446000C9446000C9446000C94460018
:100050000C9446000C9446000C9446000C94460008
:100060000C9446000C94460011241FBECFEFD8E03C
:10007000DEBFCDBF11E0A0E0B1E001C01D92A43011
:10008000B107E1F70E942A040C9439060C94000091
:100090001F920F920FB60F9211248F939F9380E0BF
:1000A00090E04A9905C085369105DCF70196F9CFB5
:1000B00084369105C4F0809102019091030180FD86
:1000C00003C084EF91E002C084EC99E09093890032
:1000D0008093880080910201909103010196909392
:1000E0000301809302019F918F910F900FBE0F909B
:1000F0001F9018951F920F920FB60F9211248F9395
:100100009F9380E090E04B9905C085369105DCF720
:100110000196F9CF84369105F4F080910201909117
:1001200003010297C0F0809100019091010180FDD0
:1001300003C084EF91E002C084EC99E090938B00BF
:1001400080938A0080910001909101010196909323
:100150000101809300019F918F910F900FBE0F902E
:100160001F901895ECE7F0E0808180648083EAE7D7
:10017000F0E080818360808380818068808308953F
:1001800090917C00907F982B90937C0080917A00D6
:10019000806480937A0080917A0086FDFCCF809104
:1001A000780090917900089520E0261731F0FC0145
:1001B00041935193CF012F5FF8CF0895CF93DF93F1
:1001C00070E0EB01C150D048CC0FDD1FC80FD91F24
:1001D00090E061507109292F30E02617370744F469
:1001E000FE0132912291398328839F5FEF01F3CF83
:1001F000842F0E94C00099838883DF91CF91089556
:10020000FC01362F60E070E0CB0120E0231741F0C5
:1002100041915191640F751F811D911D2F5FF6CF84
:1002200030E040E050E00E941706C9010895E0E880
:10023000F0E0808182608083A1E8B0E08C918861E9
:100240008C938C9181608C9380E593EC90938700E4
:100250008093860080818068808380818062808333
:10026000219A229A84EC99E09093890080938800E7
:1002700090938B0080938A00089584B5836084BD39
:1002800084B5806A84BD85B5816085BD8AB180668C
:100290008AB90895209A249A249A259A60E070E0F9
:1002A00082E40E949F0264E070E084E40E949F0266
:1002B00064E070E082E40E949F0265E070E082E406
:1002C0000C949F02CF93DF93EC01CB01835C9140B0
:1002D0008135910580F06F5F714077FF02C06F5FDD
:1002E0007F4F75956795C61BD70BC11584E0D8075E
:1002F0003CF4D7FD22C0C43182E0D807CCF002C064
:10030000CFEFD3E060E070E082E40E94760264E028
:1003100070E084E40E949F02BE01882777FD8095EB
:10032000982F0E94080520E030E440E054E41EC00D
:10033000C33C81E0D80734F502C0C0E0D0E060E003
:1003400070E082E40E949F0264E070E084E40E9416
:100350007602BE01882777FD8095982F0E940805B8
:100360009B01AC0160E070E08FEF93E40E947004A9
:1003700020E030E040E05FE30E9494050E94D50455
:10038000862F0BC060E070E082E40E949F0264E070
:1003900070E084E40E949F0280E0DF91CF91089595
:1003A000CF93DF93EC01CB01835C914081359105C4
:1003B00080F06F5F714077FF02C06F5F7F4F759570
:1003C0006795C60FD71FC11584E0D8073CF4D7FD49
:1003D00022C0C43182E0D807CCF002C0CFEFD3E016
:1003E00064E070E082E40E949F0265E070E082E4D5
:1003F0000E947602BE01882777FD8095982F0E9483
:10040000080520E030E440E054E41EC0C33C81E035
:10041000D80734F502C0C0E0D0E064E070E082E4C8
:100420000E94760265E070E082E40E949F02BE01B5
:10043000882777FD8095982F0E9408059B01AC01C5
:1004400060E070E08FEF93E40E94700420E030E001
:1004500040E05FE30E9494050E94D504862F0BC004
:1004600064E070E082E40E949F0265E070E082E454
:100470000E949F0280E0DF91CF9108955298539897
:100480008BB18C608BB98DB383608DBBE9E6F0E0F6
:1004900080818A60808378940895813431F1823438
:1004A00059F425B181E090E0062E01C0880F0A942E
:1004B000EAF7282725B90895833459F428B181E053
:1004C00090E0062E01C0880F0A94EAF7282728B981
:1004D0000895843451F42BB181E090E0062E01C0E0
:1004E000880F0A94EAF728272BB90895813431F14F
:1004F000823459F425B181E090E0062E01C0880FC6
:100500000A94EAF7282B25B90895833459F428B1C1
:1005100081E090E0062E01C0880F0A94EAF7282BAC
:1005200028B90895843451F42BB181E090E0062E6F
:1005300001C0880F0A94EAF7282B2BB9089581345B
:1005400049F1823461F425B181E090E0062E01C0CA
:10055000880F0A94EAF78095822385B90895833439
:1005600061F428B181E090E0062E01C0880F0A9462
:10057000EAF78095822388B90895843459F42BB121
:1005800081E090E0062E01C0880F0A94EAF780957A
:1005900082238BB90895813449F1823461F424B106
:1005A00081E090E0062E01C0880F0A94EAF780955A
:1005B000822384B90895833461F427B181E090E007
:1005C000062E01C0880F0A94EAF78095822387B926
:1005D0000895843459F42AB181E090E0062E01C0D8
:1005E000880F0A94EAF7809582238AB908958134A6
:1005F00031F1823459F424B181E090E0062E01C03B
:10060000880F0A94EAF7282B24B90895833459F403
:1006100027B181E090E0062E01C0880F0A94EAF726
:10062000282B27B90895843451F42AB181E090E051
:10063000062E01C0880F0A94EAF7282B2AB90895DC
:100640001092C5008CE08093C400E0ECF0E0808163
:100650008260808388E18093C10086E08093C2003D
:1006600008959091C00095FFFCCF8093C600089537
:100670008091C00087FFFCCF8091C60008951F9332
:10068000CF93DF93EC0110E0FE01E10FF11D8081BB
:10069000882321F00E9431031F5FF6CFDF91CF91B5
:1006A0001F910895CF92DF92EF92FF920F931F93C5
:1006B000CF93DF937C01D12C062F10E0015011095C
:1006C000CD2DD0E0C017D10744F40E943803C82EC6
:1006D0000E9431038DE0C8120CC0CE0DDF1D1882C0
:1006E000DF91CF911F910F91FF90EF90DF90CF900E
:1006F0000895CE0DDF1DC882D394E2CFCF93C82FCB
:1007000064E60E94F705805D0E9431032AE08C2F89
:10071000622F0E94F705C92F0E94F70580E3890F19
:100720000E94310380E38C0FCF910C9431030F931F
:100730001F93CF93DF93EC0160E177E20E94030601
:1007400080E3860F0E943103CE0168EE73E00E94C1
:100750000306CB010AE010E0B8010E940306805DA9
:100760000E943103CE0164E670E00E940306CB01D3
:10077000B8010E940306805D0E943103CE01B801DA
:100780000E940306C82FCB01B8010E940306805DBA
:100790000E94310380E38C0FDF91CF911F910F9165
:1007A0000C9431031F93CF93DF931F92CDB7DEB725
:1007B000898317E0898190E0012E02C09595879585
:1007C0000A94E2F780FF02C081E301C080E30E9447
:1007D0003103115078F70F90DF91CF911F91089559
:1007E0008A3010F4805D0895895C0895CF93C82FF6
:1007F00082958F700E94F0030E9431038C2F8F70BE
:100800000E94F003CF910C9431030F931F93CF9369
:10081000DF93D0E3C0E300E30E943803182F0E9467
:1008200031031D3021F00C2FCD2FD12FF5CFD05318
:10083000005384E6089FD00D11249C2F990F9056E9
:10084000892F880F880F890F8D0FDF91CF911F910E
:100850000F910895CF93DF93CDB7DEB7C857D10975
:100860000FB6F894DEBF0FBECDBF0E94B2000E944B
:1008700017010E944A010E943D010E943E024FEF73
:1008800051E06EE1CE0101960E94D4004FEF51E09D
:100890006EE1CE01CD960E94D40040E06EE1CE0123
:1008A00001960E94DE006EE1CE0101960E940001D9
:1008B0008C0141E06EE1CE01CD960E94DE006EE13A
:1008C000CE01CD960E9400017C01BC01C8010E94AE
:1008D000620187BDB701C8010E94D00188BDDDCF8C
:1008E0005058BB27AA270ED0E5C0D6D030F0DBD0B9
:1008F00020F031F49F3F11F41EF4CBC00EF4E095CC
:10090000E7FBC1C0E92FE7D080F3BA17620773078E
:100910008407950718F071F49EF5FFC00EF4E0957A
:100920000B2EBA2FA02D0B01B90190010C01CA01A9
:10093000A0011124FF27591B99F0593F50F4503E54
:1009400068F11A16F040A22F232F342F4427585F46
:10095000F3CF469537952795A795F0405395C9F75E
:100960007EF41F16BA0B620B730B840BBAF0915016
:10097000A1F0FF0FBB1F661F771F881FC2F70EC0B5
:10098000BA0F621F731F841F48F487957795679588
:10099000B795F7959E3F08F0B3CF9395880F08F071
:1009A0009927EE0F97958795089504D06894B11113
:1009B000B5C0089598D088F09F5790F0B92F992727
:1009C000B751A0F0D1F0660F771F881F991F1AF05A
:1009D000BA95C9F712C0B13081F09FD0B1E0089547
:1009E0009CC0672F782F8827B85F39F0B93FCCF3C8
:1009F000869577956795B395D9F73EF49095809550
:100A0000709561957F4F8F4F9F4F0895E89409C06F
:100A100097FB3EF490958095709561957F4F8F4F31
:100A20009F4F9923A9F0F92F96E9BB279395F69547
:100A3000879577956795B795F111F8CFFAF4BB0FC5
:100A400011F460FF1BC06F5F7F4F8F4F9F4F16C029
:100A5000882311F096E911C0772321F09EE8872FB3
:100A6000762F05C0662371F096E8862F70E060E06F
:100A70002AF09A95660F771F881FDAF7880F9695E8
:100A8000879597F9089597F99F6780E870E060E08F
:100A900008959FEF80EC089500240A941616170617
:100AA00018060906089500240A941216130614065F
:100AB00005060895092E0394000C11F4882352F0C2
:100AC000BB0F40F4BF2B11F460FF04C06F5F7F4F7A
:100AD0008F4F9F4F089557FD9058440F551F59F061
:100AE0005F3F71F04795880F97FB991F61F09F3F1B
:100AF00079F087950895121613061406551FF2CF44
:100B00004695F1DF08C0161617061806991FF1CF93
:100B100086957105610508940895E894BB276627BA
:100B20007727CB0197F908950BD0C4CFB5DF28F014
:100B3000BADF18F0952309F0A6CFABCF1124EECF82
:100B4000CADFA0F3959FD1F3950F50E0551F629F28
:100B5000F001729FBB27F00DB11D639FAA27F00D16
:100B6000B11DAA1F649F6627B00DA11D661F829F3D
:100B70002227B00DA11D621F739FB00DA11D621F22
:100B8000839FA00D611D221F749F3327A00D611D3F
:100B9000231F849F600D211D822F762F6A2F112421
:100BA0009F5750408AF0E1F088234AF0EE0FFF1F74
:100BB000BB1F661F771F881F91505040A9F79E3FAB
:100BC000510570F060CFAACF5F3FECF3983EDCF3A5
:100BD000869577956795B795F795E7959F5FC1F7E8
:100BE000FE2B880F911D9695879597F90895991B6F
:100BF00079E004C0991F961708F0961B881F7A9514
:100C0000C9F780950895AA1BBB1B51E107C0AA1F15
:100C1000BB1FA617B70710F0A61BB70B881F991F9D
:100C20005A95A9F780959095BC01CD010895A1E250
:100C30001A2EAA1BBB1BFD010DC0AA1FBB1FEE1F56
:100C4000FF1FA217B307E407F50720F0A21BB30BA1
:100C5000E40BF50B661F771F881F991F1A9469F71D
:100C600060957095809590959B01AC01BD01CF0179
:060C70000895F894FFCF87
:00000001FF
