:100000000C9434000C9449000C9449000C94490061
:100010000C9449000C9449000C9449000C9449003C
:100020000C9449000C9449000C9449000C9449002C
:100030000C9449000C9449000C9449000C9449001C
:100040000C9449000C9449000C9449000C9449000C
:100050000C9449000C9449000C9449000C944900FC
:100060000C9449000C94490011241FBECFEFD8E036
:10007000DEBFCDBF11E0A0E0B1E0E4EFFDE002C0E3
:1000800005900D92AC32B107D9F70E94BA020C94D8
:10009000F8060C940000ECE7F0E080818064808337
:1000A000EAE7F0E0808185608083808180688083DA
:1000B000089590917C00907F982B90937C00809184
:1000C0007A00806480937A0080917A0086FDFCCF6C
:1000D0002091780030917900C901089520E005C091
:1000E000FC0141935193CF012F5F2613F9CF08955F
:1000F000CF93DF9370E061507109EB01CC0FDD1FEE
:10010000C80FD91F90E007C0FE01329122913983B8
:1001100028839F5FEF01292F30E026173707A4F3CC
:10012000842F0E94590099838883DF91CF9108958D
:10013000FC01362F60E070E0CB0120E007C0419168
:100140005191640F751F811D911D2F5F2313F7CFF0
:1001500030E040E050E00E940504C9010895229A71
:1001600062E070E082E40E94DD008FE493EC01978E
:10017000F1F700C0000062E070E082E40E94DD0060
:100180008FE493EC0197F1F700C0000062E070E0AB
:1001900082E40E94DD008FE493EC0197F1F700C048
:1001A000000062E070E082E40E94DD008FE493ECE6
:1001B0000197F1F700C000000895813431F18234D5
:1001C00059F425B181E090E0062E01C0880F0A9411
:1001D000EAF7282725B90895833459F428B181E036
:1001E00090E0062E01C0880F0A94EAF7282728B964
:1001F0000895843451F42BB181E090E0062E01C0C3
:10020000880F0A94EAF728272BB90895813431F131
:10021000823459F425B181E090E0062E01C0880FA8
:100220000A94EAF7282B25B90895833459F428B1A4
:1002300081E090E0062E01C0880F0A94EAF7282B8F
:1002400028B90895843451F42BB181E090E0062E52
:1002500001C0880F0A94EAF7282B2BB9089581343E
:1002600049F1823461F425B181E090E0062E01C0AD
:10027000880F0A94EAF78095822385B9089583341C
:1002800061F428B181E090E0062E01C0880F0A9445
:10029000EAF78095822388B90895843459F42BB104
:1002A00081E090E0062E01C0880F0A94EAF780955D
:1002B00082238BB90895813449F1823461F424B1E9
:1002C00081E090E0062E01C0880F0A94EAF780953D
:1002D000822384B90895833461F427B181E090E0EA
:1002E000062E01C0880F0A94EAF78095822387B909
:1002F0000895843459F42AB181E090E0062E01C0BB
:10030000880F0A94EAF7809582238AB90895813488
:1003100031F1823459F424B181E090E0062E01C01D
:10032000880F0A94EAF7282B24B90895833459F4E6
:1003300027B181E090E0062E01C0880F0A94EAF709
:10034000282B27B90895843451F42AB181E090E034
:10035000062E01C0880F0A94EAF7282B2AB90895BF
:100360001092C5008CE08093C400E0ECF0E0808146
:100370008260808388E18093C10086E08093C20020
:1003800008959091C00095FFFCCF8093C60008951A
:100390008091C00087FFFCCF8091C60008951F9315
:1003A000CF93DF93EC0110E003C00E94C1011F5FF7
:1003B000FE01E10FF11D80818111F7CFDF91CF9117
:1003C0001F910895CF92DF92EF92FF920F931F93A8
:1003D000CF93DF938C01D12CC62FD0E0219712C090
:1003E0000E94C801C82E0E94C1018DE0C81205C03C
:1003F000F801ED0DF11D10820BC0F801EE0DFF1D8F
:10040000C082D394ED2CF12CEC16FD064CF3F0CF0A
:10041000DF91CF911F910F91FF90EF90DF90CF90E0
:100420000895CF93C82F64E60E94E503805D0E9483
:10043000C1012AE08C2F622F0E94E503C92F0E9480
:10044000E503892F805D0E94C1018C2F805DCF91D3
:100450000C94C1010F931F93CF93DF93EC0160E1E4
:1004600077E20E94F103862F805D0E94C101CE01D8
:1004700068EE73E00E94F103CB010AE010E0B801DE
:100480000E94F103805D0E94C101CE0164E670E02C
:100490000E94F103CB01B8010E94F103805D0E942C
:1004A000C101CE01B8010E94F103C82FCB01B801F0
:1004B0000E94F103805D0E94C1018C2F805DDF915D
:1004C000CF911F910F910C94C1011F93CF93DF9394
:1004D0001F92CDB7DEB7898317E0898190E0012EA6
:1004E00002C0959587950A94E2F780FF02C081E3E8
:1004F00001C080E30E94C101115078F70F90DF9195
:10050000CF911F9108958A3010F4805D0895895C21
:100510000895CF93C82F82958F700E9483020E9406
:10052000C1018C2F8F700E948302CF910C94C10166
:100530000F931F93CF93DF93D0E3C0E300E303C097
:10054000D12FC82F092F0E94C801182F0E94C10166
:100550009C2F8D2F1D30A1F7805D94E6099F800DA3
:1005600011249AE0C99F800D1124DF91CF911F9132
:100570000F910895CF93DF93CDB7DEB7CC5BD10950
:100580000FB6F894DEBF0FBECDBF0E94B00180E071
:1005900091E00E94CF010E94AF000E944B005E01DB
:1005A00081E5A80EB11C4FEF51E06AE0C5010E9441
:1005B0006E006E0195E6C90ED11C4FEF51E06AE066
:1005C000C6010E946E0040E050E064E1EE24E39436
:1005D000F12CEC0EFD1EC7010E946E008E01075D1E
:1005E0001F4F40E050E064E1C8010E946E00250109
:1005F0003601CB54DF4FE882C55BD040CA54DF4F91
:10060000F882C65BD040180105E111E04E0186EA90
:10061000880E911C5E0197E9A90EB11C6E0188E855
:10062000C80ED11C7E0199E7E90EF11C40E06AE09A
:10063000C2010E9478006AE0C2010E949800582F0F
:10064000792F41E06AE0C301C754DF4F5883C95B8B
:10065000D040C654DF4F7883CA5BD0400E947800F8
:100660006AE0C3010E9498009C0142E064E1CB541F
:10067000DF4F8881C55BD040CA54DF4F9881C65B8D
:10068000D040C554DF4F2883CB5BD040C454DF4FEC
:100690003883CC5BD0400E94780064E1CB54DF4FBC
:1006A0008881C55BD040CA54DF4F9881C65BD0407B
:1006B0000E949800C954DF4F8883C75BD040C8545C
:1006C000DF4F9883C85BD04043E064E1C1010E94E2
:1006D000780064E1C1010E949800C654DF4F788120
:1006E000CA5BD0407F93C754DF4F5881C95BD0406D
:1006F0005F931F930F939F928F92C754DF4F88830E
:10070000C95BD040C654DF4F9883CA5BD0400E947B
:100710002704C454DF4F3881CC5BD0403F93C5548D
:10072000DF4F2881CB5BD0402F931F930F93BF9255
:10073000AF920E942704C854DF4F8881C85BD04025
:100740008F93C954DF4F9881C75BD0409F931F930D
:100750000F93DF92CF920E942704C654DF4F688127
:10076000CA5BD0406F93C754DF4F4881C95BD0400C
:100770004F931F930F93FF92EF920E94270488E1FB
:1007800091E00E94CF01C4010E94CF018DE191E070
:100790000E94CF01C5010E94CF0182E291E00E9438
:1007A000CF01C6010E94CF0187E291E00E94CF01F4
:1007B000C7010E94CF0182E191E00E94CF010FB6F4
:1007C000F894DEBF0FBECDBF31CF991B79E004C0D6
:1007D000991F961708F0961B881F7A95C9F7809580
:1007E0000895AA1BBB1B51E107C0AA1FBB1FA61778
:1007F000B70710F0A61BB70B881F991F5A95A9F7CA
:1008000080959095BC01CD010895A1E21A2EAA1BF6
:10081000BB1BFD010DC0AA1FBB1FEE1FFF1FA217B0
:10082000B307E407F50720F0A21BB30BE40BF50BAD
:10083000661F771F881F991F1A9469F76095709536
:10084000809590959B01AC01BD01CF010895AEE06C
:10085000B0E0EDE2F4E00C94CF060D891E8986E04D
:100860008C831A8309838FEF9FE79E838D83AE016C
:10087000475E5F4F6F89788DCE0101960E944904D3
:10088000EF81F885E00FF11F10822E96E4E00C94C2
:10089000EB06ACE0B0E0EFE4F4E00C94C1067C01C0
:1008A0006B018A01FC0117821682838181FFBDC121
:1008B000CE0101964C01F7019381F60193FD8591DC
:1008C00093FF81916F01882309F4ABC1853239F41C
:1008D00093FD859193FF81916F01853229F4B701D2
:1008E00090E00E943106E7CF512C312C20E02032DD
:1008F000A0F48B3269F030F4803259F0833269F41D
:1009000020612CC08D3239F0803339F4216026C04B
:100910002260246023C0286021C027FD27C030ED5D
:10092000380F3A3078F426FF06C0FAE05F9E300DAB
:100930001124532E13C08AE0389E300D1124332E1B
:1009400020620CC08E3221F426FD6BC1206406C0EB
:100950008C3611F4206802C0883641F4F60193FD0C
:10096000859193FF81916F018111C1CF982F9F7D58
:100970009554933028F40C5F1F4FFFE3F9830DC0AB
:10098000833631F0833771F0833509F05BC022C0C4
:10099000F801808189830E5F1F4F44244394512CBA
:1009A000540115C03801F2E06F0E711CF801A080EF
:1009B000B18026FF03C0652D70E002C06FEF7FEFAE
:1009C000C5012C870E9426062C0183012C852F77D8
:1009D000222E17C03801F2E06F0E711CF801A080C2
:1009E000B18026FF03C0652D70E002C06FEF7FEF7E
:1009F000C5012C870E941B062C012C852068222E05
:100A0000830123FC1BC0832D90E048165906B0F4E7
:100A1000B70180E290E00E9431063A94F4CFF501EC
:100A200027FC859127FE81915F01B70190E00E942C
:100A3000310631103A94F1E04F1A51084114510433
:100A400071F7E5C0843611F0893639F5F80127FFD2
:100A500007C060817181828193810C5F1F4F08C044
:100A600060817181882777FD8095982F0E5F1F4FD9
:100A70002F76B22E97FF09C090958095709561955D
:100A80007F4F8F4F9F4F2068B22E2AE030E0A401A5
:100A90000E946306A82EA81844C0853729F42F7E2B
:100AA000B22E2AE030E025C0F22FF97FBF2E8F361C
:100AB000C1F018F4883579F0B4C0803719F0883760
:100AC00021F0AFC02F2F2061B22EB4FE0DC08B2DB0
:100AD0008460B82E09C024FF0AC09F2F9660B92EEB
:100AE00006C028E030E005C020E130E002C020E18F
:100AF00032E0F801B7FE07C0608171818281938185
:100B00000C5F1F4F06C06081718180E090E00E5F36
:100B10001F4FA4010E946306A82EA818FB2DFF7783
:100B2000BF2EB6FE0BC02B2D2E7FA51450F4B4FEA5
:100B30000AC0B2FC08C02B2D2E7E05C07A2C2B2DAE
:100B400003C07A2C01C0752C24FF0DC0FE01EA0DF4
:100B5000F11D8081803311F4297E09C022FF06C077
:100B60007394739404C0822F867809F0739423FDE4
:100B700013C020FF06C05A2C731418F4530C5718D6
:100B8000732C731468F4B70180E290E02C870E9404
:100B9000310673942C85F5CF731410F4371801C007
:100BA000312C24FF12C0B70180E390E02C870E9413
:100BB00031062C8522FF17C021FF03C088E590E095
:100BC00002C088E790E0B7010CC0822F867859F008
:100BD00021FD02C080E201C08BE227FD8DE2B7015A
:100BE00090E00E943106A51438F4B70180E390E04C
:100BF0000E9431065A94F7CFAA94F401EA0DF11D30
:100C00008081B70190E00E943106A110F5CF33201A
:100C100009F451CEB70180E290E00E9431063A9487
:100C2000F6CFF7018681978102C08FEF9FEF2C9658
:100C3000E2E10C94DD06FC0105906150704001106A
:100C4000D8F7809590958E0F9F1F0895FC016150F5
:100C5000704001900110D8F7809590958E0F9F1FDE
:100C600008950F931F93CF93DF93182F092FEB0154
:100C70008B8181FD03C08FEF9FEF20C082FF10C0EA
:100C80004E815F812C813D81421753077CF4E881BE
:100C9000F9819F012F5F3F4F39832883108306C05E
:100CA000E885F985812F0995892B29F72E813F81C8
:100CB0002F5F3F4F3F832E83812F902FDF91CF9166
:100CC0001F910F910895FA01AA27283051F1203180
:100CD00081F1E8946F936E7F6E5F7F4F8F4F9F4FD0
:100CE000AF4FB1E03ED0B4E03CD0670F781F891F12
:100CF0009A1FA11D680F791F8A1F911DA11D6A0FE0
:100D0000711D811D911DA11D20D009F468943F9192
:100D10002AE0269F11243019305D3193DEF6CF0191
:100D20000895462F4770405D4193B3E00FD0C9F757
:100D3000F6CF462F4F70405D4A3318F0495D31FDC4
:100D40004052419302D0A9F7EACFB4E0A695979517
:100D5000879577956795BA95C9F7009761057105ED
:100D600008959B01AC010A2E069457954795379537
:100D70002795BA95C9F7620F731F841F951FA01D91
:100D800008952F923F924F925F926F927F928F922F
:100D90009F92AF92BF92CF92DF92EF92FF920F930A
:100DA0001F93CF93DF93CDB7DEB7CA1BDB0B0FB614
:100DB000F894DEBF0FBECDBF09942A8839884888D1
:100DC0005F846E847D848C849B84AA84B984C88467
:100DD000DF80EE80FD800C811B81AA81B981CE0F5E
:100DE000D11D0FB6F894DEBF0FBECDBFED01089543
:040DF000F894FFCFA5
:100DF400555341525420496E697469616C697A652E
:100E040064210D0A0025640020563A200020483A47
:0C0E1400200020543A200020423A200028
:00000001FF
