:100000000C9434000C9449000C9449000C94490061
:100010000C9449000C9449000C9449000C9449003C
:100020000C9449000C9449000C9449000C9449002C
:100030000C9449000C9449000C9449000C9449001C
:100040000C9449000C9449000C9449000C9449000C
:100050000C9449000C9449000C9449000C944900FC
:100060000C9449000C94490011241FBECFEFD8E036
:10007000DEBFCDBF11E0A0E0B1E0EAE7F9E002C0E9
:1000800005900D92A631B107D9F70E9428020C9471
:10009000BB040C940000813431F1823459F425B151
:1000A00081E090E0062E01C0880F0A94EAF7282725
:1000B00025B90895833459F428B181E090E0062EE3
:1000C00001C0880F0A94EAF7282728B908958434D4
:1000D00051F42BB181E090E0062E01C0880F0A9404
:1000E000EAF728272BB90895813431F1823459F485
:1000F00025B181E090E0062E01C0880F0A94EAF74E
:10010000282B25B90895833459F428B181E090E073
:10011000062E01C0880F0A94EAF7282B28B9089503
:10012000843451F42BB181E090E0062E01C0880F99
:100130000A94EAF7282B2BB90895813449F18234C7
:1001400061F425B181E090E0062E01C0880F0A9489
:10015000EAF78095822385B90895833461F428B144
:1001600081E090E0062E01C0880F0A94EAF780959E
:10017000822388B90895843459F42BB181E090E04A
:10018000062E01C0880F0A94EAF7809582238BB966
:100190000895813449F1823461F424B181E090E022
:1001A000062E01C0880F0A94EAF78095822384B94D
:1001B0000895833461F427B181E090E0062E01C0F8
:1001C000880F0A94EAF78095822387B908958434CA
:1001D00059F42AB181E090E0062E01C0880F0A94FC
:1001E000EAF7809582238AB90895813431F1823407
:1001F00059F424B181E090E0062E01C0880F0A94E2
:10020000EAF7282B24B90895833459F427B181E003
:1002100090E0062E01C0880F0A94EAF7282B27B930
:100220000895843451F42AB181E090E0062E01C093
:10023000880F0A94EAF7282B2AB908951092C5006E
:100240008CE08093C400E0ECF0E0808182608083E9
:1002500088E18093C10086E08093C2000895909168
:10026000C00095FFFCCF8093C60008958091C00028
:1002700087FFFCCF8091C60008951F93CF93DF9333
:10028000EC0110E003C00E942F011F5FFE01E10F8F
:10029000F11D80818111F7CFDF91CF911F910895DA
:1002A000CF92DF92EF92FF920F931F93CF93DF9342
:1002B0008C01D12CC62FD0E0219712C00E943601AC
:1002C000C82E0E942F018DE0C81205C0F801ED0D67
:1002D000F11D10820BC0F801EE0DFF1DC082D394FA
:1002E000ED2CF12CEC16FD064CF3F0CFDF91CF9105
:1002F0001F910F91FF90EF90DF90CF900895CF93D3
:10030000C82F64E60E947904805D0E942F012AE0D4
:100310008C2F622F0E947904C92F0E947904892FA3
:10032000805D0E942F018C2F805DCF910C942F0156
:100330000F931F93CF93DF93EC0160E177E20E946C
:100340008504862F805D0E942F01CE0168EE73E048
:100350000E948504CB010AE010E0B8010E948504E8
:10036000805D0E942F01CE0164E670E00E9485044A
:10037000CB01B8010E948504805D0E942F01CE014F
:10038000B8010E948504C82FCB01B8010E948504E2
:10039000805D0E942F018C2F805DDF91CF911F9196
:1003A0000F910C942F011F93CF93DF931F92CDB722
:1003B000DEB7898317E0898190E0012E02C0959510
:1003C00087950A94E2F780FF02C081E301C080E3D1
:1003D0000E942F01115078F70F90DF91CF911F915C
:1003E00008958A3010F4805D0895895C0895CF9354
:1003F000C82F82958F700E94F1010E942F018C2FCF
:100400008F700E94F101CF910C942F010F931F93D5
:10041000CF93DF93D0E3C0E300E303C0D12FC82F15
:10042000092F0E943601182F0E942F019C2F8D2F1B
:100430001D30A1F7805D94E6099F800D11249AE09C
:10044000C99F800D1124DF91CF911F910F910895C5
:10045000CF93DF93CDB7DEB70E941E0180E091E01D
:100460000E943D01229A62E070E082E40E944B000B
:100470008FE493EC0197F1F700C0000062E070E0B8
:1004800082E40E944B00EFE4F3EC3197F1F700C0F7
:10049000000062E070E082E40E944B008FE493EC85
:1004A0000197F1F700C0000062E070E082E40E9472
:1004B0004B00EFE4F3EC3197F1F700C000008091BE
:1004C0007C00806480937C0080917A0084608093BB
:1004D0007A0080917A00806880937A008DB79EB709
:1004E000805991400FB6F8949EBF0FBE8DBF0DB7D7
:1004F0001EB70F5F1F4FB02EA12EF80120E08CED2C
:1005000095E0819391932F5F283CD9F78CED95E08E
:10051000909389008093880080918000826080930E
:1005200080008091810088618093810080918100AA
:1005300081608093810080E593EC909387008093A5
:10054000860080918000806880938000219A88ECEA
:10055000C82ED12CE12CF12C80917A0080648093FC
:100560007A0080917A0086FDFCCF609178007091CE
:10057000790080E090E00E94880321E73DE34AEFA4
:100580005FE30E9416042B2D3A2DA7ECF901E457E6
:10059000FE4F40815181F901E257FE4F5183408364
:1005A000A15022503109A111F1CF20E030E04AEFF3
:1005B00053E40E94F8020E945C03F8017183608397
:1005C000EB2DFA2D48EC60E070E0CB0121913191E8
:1005D000620F731F811D911D4150C1F7A701960144
:1005E0000E9499043093890020938800B5CF505819
:1005F000BB27AA270ED0E0C0D1D030F0D6D020F053
:1006000031F49F3F11F41EF4C6C00EF4E095E7FBF1
:10061000BCC0E92FE2D080F3BA17620773078407E2
:10062000950718F071F49EF5FAC00EF4E0950B2EC4
:10063000BA2FA02D0B01B90190010C01CA01A00134
:100640001124FF27591B99F0593F50F4503E68F18F
:100650001A16F040A22F232F342F4427585FF3CFD0
:10066000469537952795A795F0405395C9F77EF4A1
:100670001F16BA0B620B730B840BBAF09150A1F0EA
:10068000FF0FBB1F661F771F881FC2F70EC0BA0F70
:10069000621F731F841F48F4879577956795B795F8
:1006A000F7959E3F08F0B3CF9395880F08F09927F0
:1006B000EE0F97958795089598D088F09F5790F002
:1006C000B92F9927B751A0F0D1F0660F771F881F77
:1006D000991F1AF0BA95C9F712C0B13081F09FD0B6
:1006E000B1E008959CC0672F782F8827B85F39F054
:1006F000B93FCCF3869577956795B395D9F73EF4D6
:1007000090958095709561957F4F8F4F9F4F08957D
:10071000E89409C097FB3EF490958095709561959B
:100720007F4F8F4F9F4F9923A9F0F92F96E9BB2751
:100730009395F695879577956795B795F111F8CFCD
:10074000FAF4BB0F11F460FF1BC06F5F7F4F8F4F38
:100750009F4F16C0882311F096E911C0772321F02E
:100760009EE8872F762F05C0662371F096E8862FC6
:1007700070E060E02AF09A95660F771F881FDAF71D
:10078000880F9695879597F9089597F99F6780E860
:1007900070E060E008959FEF80EC089500240A94D3
:1007A0001616170618060906089500240A9412164C
:1007B0001306140605060895092E0394000C11F47F
:1007C000882352F0BB0F40F4BF2B11F460FF04C02C
:1007D0006F5F7F4F8F4F9F4F089557FD9058440F85
:1007E000551F59F05F3F71F04795880F97FB991F90
:1007F00061F09F3F79F0879508951216130614064D
:10080000551FF2CF4695F1DF08C0161617061806D9
:10081000991FF1CF86957105610508940895E894B4
:10082000BB2766277727CB0197F908950BD0C4CF54
:10083000B5DF28F0BADF18F0952309F0A6CFABCFCB
:100840001124EECFCADFA0F3959FD1F3950F50E0AE
:10085000551F629FF001729FBB27F00DB11D639F72
:10086000AA27F00DB11DAA1F649F6627B00DA11D18
:10087000661F829F2227B00DA11D621F739FB00DBE
:10088000A11D621F839FA00D611D221F749F33272E
:10089000A00D611D231F849F600D211D822F762FC7
:1008A0006A2F11249F5750408AF0E1F088234AF0C4
:1008B000EE0FFF1FBB1F661F771F881F9150504010
:1008C000A9F79E3F510570F060CFAACF5F3FECF3D0
:1008D000983EDCF3869577956795B795F795E795FC
:1008E0009F5FC1F7FE2B880F911D9695879597F90D
:1008F0000895991B79E004C0991F961708F0961B7C
:10090000881F7A95C9F780950895AA1BBB1B51E1F2
:1009100007C0AA1FBB1FA617B70710F0A61BB70B6F
:10092000881F991F5A95A9F780959095BC01CD0114
:100930000895A1E21A2EAA1BBB1BFD010DC0AA1F20
:10094000BB1FEE1FFF1FA217B307E407F50720F038
:10095000A21BB30BE40BF50B661F771F881F991FB3
:100960001A9469F760957095809590959B01AC01FC
:0A097000BD01CF010895F894FFCFF8
:10097A00555341525420496E697469616C697A65AC
:06098A0064210D0A0000CB
:00000001FF
