:100000000EC01DC01CC01BC01AC019C018C017C02C
:1000100016C015C014C013C012C011C010C01124E6
:100020001FBECFE5D2E0DEBFCDBF10E0A0E6B0E05E
:1000300001C01D92A436B107E1F72AD109C3E0CF70
:100040001F920F920FB60F9211248F939F93AF932D
:10005000BF93B19B03C0B29B03C00EC0B29B0CC048
:100060008091600090916100A0916200B091630066
:100070000196A11DB11D0BC080916000909161009F
:10008000A0916200B09163000197A109B10980932A
:10009000600090936100A0936200B0936300BF91F1
:1000A000AF919F918F910F900FBE0F901F90189559
:1000B0001F920F920FB60F9211248F939F93AF93BD
:1000C000BF93B29B03C0B19B03C00EC0B19B0CC0D9
:1000D0008091600090916100A0916200B0916300F6
:1000E0000197A109B1090BC0809160009091610056
:1000F000A0916200B09163000196A11DB11D809393
:10010000600090936100A0936200B0936300BF9180
:10011000AF919F918F910F900FBE0F901F901895E8
:100120003F983E9886B1836086B9379A089597B113
:10013000907F982B97B9369A3699FECF84B195B1B6
:10014000089520E0261731F0FC0141935193CF012F
:100150002F5FF8CF0895CF93DF9370E0EB01C1508C
:10016000D048CC0FDD1FC80FD91F90E06150710936
:10017000292F30E02617370744F4FE0132912291EF
:10018000398328839F5FEF01F3CF842FD0DF9983DA
:100190008883DF91CF910895FC01362F60E070E0F5
:1001A000CB0120E0231741F041915191640F751F5D
:1001B000811D911D2F5FF6CF30E040E050E00AD264
:1001C000C90108958AB583608ABD8AB580688ABDF1
:1001D00083B7816083BFB89A0895BD9ABB9A65E0E2
:1001E00070E082E490E02BD063E070E082E490E085
:1001F00026C0B998BA98C19AC29A8BB780628BBF51
:1002000085B3866085BB78940895823451F428B311
:1002100081E090E0062E01C0880F0A94EAF72827B3
:1002200028BB0895823451F428B381E090E0062E73
:1002300001C0880F0A94EAF7282B28BB089582345E
:1002400059F428B381E090E0062E01C0880F0A948B
:10025000EAF78095822388BB0895823459F427B346
:1002600081E090E0062E01C0880F0A94EAF780959D
:10027000822387BB0895823451F427B381E090E054
:10028000062E01C0880F0A94EAF7282B27BB089591
:10029000CF93DF93CDB7DEB7C054D1090FB6F89432
:1002A000DEBF0FBECDBF3CDF98DF8CDFA2DF40E0BA
:1002B00050E060E2CE01019644DF1FEF34E3C32E2D
:1002C00038E0D32EE12CF12C42E060E2CE01019621
:1002D00042DF60E2CE0101965FDFF894809060001B
:1002E00090906100A0906200B09063007894BC018F
:1002F000882777FD8095982F76D020E030E0A901FF
:10030000D6D03ED0681979098A099B09653328E05F
:1003100072078105910514F019BD12C06B3F71057C
:100320008105910534F0A701960176D1219529BD6B
:1003300007C066302FEF7207820792074CF019BC96
:1003400065E070E082E490E06DDF63E070E014C08F
:100350006C3C27EF72072FEF820792072CF0A70162
:1003600096015AD129BD01C019BD63E070E082E455
:1003700090E058DF65E070E082E490E060DFA4CFB9
:1003800004D06894B1118DC0089570D088F09F5743
:1003900090F0B92F9927B751A0F0D1F0660F771FD1
:1003A000881F991F1AF0BA95C9F712C0B13081F0B1
:1003B00077D0B1E0089574C0672F782F8827B85F91
:1003C00039F0B93FCCF3869577956795B395D9F712
:1003D0003EF490958095709561957F4F8F4F9F4F1C
:1003E0000895E89409C097FB3EF490958095709528
:1003F00061957F4F8F4F9F4F9923A9F0F92F96E971
:10040000BB279395F695879577956795B795F111E5
:10041000F8CFFAF4BB0F11F460FF1BC06F5F7F4F82
:100420008F4F9F4F16C0882311F096E911C0772394
:1004300021F09EE8872F762F05C0662371F096E89D
:10044000862F70E060E02AF09A95660F771F881F6C
:10045000DAF7880F9695879597F9089557FD905884
:10046000440F551F59F05F3F71F04795880F97FB78
:10047000991F61F09F3F79F0879508951216130632
:100480001406551FF2CF4695F1DF08C01616170661
:100490001806991FF1CF8695710561050894089596
:1004A000E894BB2766277727CB0197F908950AD0F0
:1004B00080C071D028F076D018F0952309F062C082
:1004C00067C0EFCFCBDFA8F39923D9F35523C9F346
:1004D000950F50E0551FAA27EE27FF27BB270024C2
:1004E0000894679520F4E20FF31FB41F0A1E220F31
:1004F000331F441FAA1F6695A9F7779530F4F30FB1
:10050000B41F0A1E121E08F46395330F441FAA1F5E
:10051000221F769599F7879520F4B40F0A1E121EB4
:10052000631F440FAA1F221F331F8695A9F7862F2A
:10053000712D602D11249F5750408AF0E1F08823DF
:100540004AF0EE0FFF1FBB1F661F771F881F9150D9
:100550005040A9F79E3F510570F014C0A2CF5F3FF5
:10056000ECF3983EDCF3869577956795B795F7950C
:10057000E7959F5FC1F7FE2B880F911D9695879594
:1005800097F9089597F99F6780E870E060E0089513
:100590009FEF80EC089500240A941616170618069B
:1005A0000906089500240A94121613061406050677
:1005B0000895092E0394000C11F4882352F0BB0F08
:1005C00040F4BF2B11F460FF04C06F5F7F4F8F4F6B
:1005D0009F4F0895A1E21A2EAA1BBB1BFD010DC05F
:1005E000AA1FBB1FEE1FFF1FA217B307E407F507E3
:1005F00020F0A21BB30BE40BF50B661F771F881FBF
:10060000991F1A9469F760957095809590959B0154
:10061000AC01BD01CF010895052E97FB16F400949F
:100620000FD057FD05D0D6DF07FC02D046F408C036
:1006300050954095309521953F4F4F4F5F4F08950E
:1006400090958095709561957F4F8F4F9F4F08953E
:04065000F894FFCF4C
:00000001FF
