:100000000C9434000C9449000C9449000C94490061
:100010000C9449000C9449000C9449000C9449003C
:100020000C9449000C9449000C9449000C9449002C
:100030000C9449000C9449000C9449000C9449001C
:100040000C9449000C9449000C9449000C9449000C
:100050000C9449000C9449000C9449000C944900FC
:100060000C9449000C94490011241FBECFEFD8E036
:10007000DEBFCDBF11E0A0E0B1E0EEE2F5E002C0EE
:1000800005900D92AE31B107D9F70E9428020C9469
:1000900095020C940000813431F1823459F425B179
:1000A00081E090E0062E01C0880F0A94EAF7282725
:1000B00025B90895833459F428B181E090E0062EE3
:1000C00001C0880F0A94EAF7282728B908958434D4
:1000D00051F42BB181E090E0062E01C0880F0A9404
:1000E000EAF728272BB90895813431F1823459F485
:1000F00025B181E090E0062E01C0880F0A94EAF74E
:10010000282B25B90895833459F428B181E090E073
:10011000062E01C0880F0A94EAF7282B28B9089503
:10012000843451F42BB181E090E0062E01C0880F99
:100130000A94EAF7282B2BB90895813449F18234C7
:1001400061F425B181E090E0062E01C0880F0A9489
:10015000EAF78095822385B90895833461F428B144
:1001600081E090E0062E01C0880F0A94EAF780959E
:10017000822388B90895843459F42BB181E090E04A
:10018000062E01C0880F0A94EAF7809582238BB966
:100190000895813449F1823461F424B181E090E022
:1001A000062E01C0880F0A94EAF78095822384B94D
:1001B0000895833461F427B181E090E0062E01C0F8
:1001C000880F0A94EAF78095822387B908958434CA
:1001D00059F42AB181E090E0062E01C0880F0A94FC
:1001E000EAF7809582238AB90895813431F1823407
:1001F00059F424B181E090E0062E01C0880F0A94E2
:10020000EAF7282B24B90895833459F427B181E003
:1002100090E0062E01C0880F0A94EAF7282B27B930
:100220000895843451F42AB181E090E0062E01C093
:10023000880F0A94EAF7282B2AB908951092C5006E
:100240008CE08093C400E0ECF0E0808182608083E9
:1002500088E18093C10086E08093C2000895909168
:10026000C00095FFFCCF8093C60008958091C00028
:1002700087FFFCCF8091C60008951F93CF93DF9333
:10028000EC0110E003C00E942F011F5FFE01E10F8F
:10029000F11D80818111F7CFDF91CF911F910895DA
:1002A000CF92DF92EF92FF920F931F93CF93DF9342
:1002B0008C01D12CC62FD0E0219712C00E943601AC
:1002C000C82E0E942F018DE0C81205C0F801ED0D67
:1002D000F11D10820BC0F801EE0DFF1DC082D394FA
:1002E000ED2CF12CEC16FD064CF3F0CFDF91CF9105
:1002F0001F910F91FF90EF90DF90CF900895CF93D3
:10030000C82F64E60E947502805D0E942F012AE0DA
:100310008C2F622F0E947502C92F0E947502892FAF
:10032000805D0E942F018C2F805DCF910C942F0156
:100330000F931F93CF93DF93EC0160E177E20E946C
:100340008102862F805D0E942F01CE0168EE73E04E
:100350000E948102CB010AE010E0B8010E948102F4
:10036000805D0E942F01CE0164E670E00E94810250
:10037000CB01B8010E948102805D0E942F01CE0155
:10038000B8010E948102C82FCB01B8010E948102EE
:10039000805D0E942F018C2F805DDF91CF911F9196
:1003A0000F910C942F011F93CF93DF931F92CDB722
:1003B000DEB7898317E0898190E0012E02C0959510
:1003C00087950A94E2F780FF02C081E301C080E3D1
:1003D0000E942F01115078F70F90DF91CF911F915C
:1003E00008958A3010F4805D0895895C0895CF9354
:1003F000C82F82958F700E94F1010E942F018C2FCF
:100400008F700E94F101CF910C942F010F931F93D5
:10041000CF93DF93D0E3C0E300E303C0D12FC82F15
:10042000092F0E943601182F0E942F019C2F8D2F1B
:100430001D30A1F7805D94E6099F800D11249AE09C
:10044000C99F800D1124DF91CF911F910F910895C5
:10045000CCEDD5E0D0938900C093880080918000D6
:100460008260809380008091810088618093810008
:100470008091810081608093810080E593EC90936E
:100480008700809386008091800080688093800040
:10049000219A0E941E0180E091E00E943D01D093CC
:1004A0008900C09388008CED95E00BC09093890083
:1004B000809388000196E1EEF4E03197F1F700C0F7
:1004C00000008839F8E09F0788F3909389008093B3
:1004D00088000197E1EEF4E03197F1F700C00000E9
:1004E0008032F3E09F0789F7ECCF991B79E004C0D5
:1004F000991F961708F0961B881F7A95C9F7809563
:100500000895AA1BBB1B51E107C0AA1FBB1FA6175A
:10051000B70710F0A61BB70B881F991F5A95A9F7AC
:0E05200080959095BC01CD010895F894FFCF11
:10052E000D0A57656C636F6D6520746F2074686576
:0E053E0020536572766F2044656D6F0D0A00C4
:00000001FF
