:1000000010C01FC01FC01DC01CC01BC01AC019C01B
:1000100018C017C016C015C014C013C012C011C03C
:1000200010C011241FBECFE5D2E0DEBFCDBF10E06F
:10003000A0E6B0E001C01D92A636B107E1F7C2D03C
:100040004AC3DECF1F920F920FB60F9211248F93E7
:100050009F93AF93BF9389B399B3827092FB992713
:1000600090F9892B8093600080916100880F880F40
:10007000809361009091610080916000892B809352
:10008000610080916100873899F4809162009091BD
:100090006300A0916400B09165000196A11DB11D9F
:1000A0008093620090936300A0936400B093650016
:1000B000809161008B3499F480916200909163008B
:1000C000A0916400B09165000197A109B1098093E6
:1000D000620090936300A0936400B0936500BF91A9
:1000E000AF919F918F910F900FBE0F901F90189519
:1000F00086B1856086B9379A089597B1907C982B20
:1001000097B9369A3699FECF84B195B1089520E01B
:10011000261731F0FC0141935193CF012F5FF8CFA7
:100120000895CF93DF9370E0EB01C150D048CC0F1E
:10013000DD1FC80FD91F90E061507109292F30E0F1
:100140002617370744F4FE01329122913983288320
:100150009F5FEF01F3CF842FD0DF99838883DF91F6
:10016000CF910895FC01362F60E070E0CB0120E0D4
:10017000231741F041915191640F751F811D911D0D
:100180002F5FF6CF30E040E050E083D2C901089500
:1001900080B7836080BF80B7806880BF83B781608D
:1001A00083BFBA9A0895B99AB89AC198C098089529
:1001B000D198D2988BB780618BBF82B3866082BBA7
:1001C00078940895CF93DF93CDB7DEB7C054D109AB
:1001D0000FB6F894DEBF0FBECDBF8ADFE4DFD8DFF5
:1001E000E7DF40E050E060E2CE01019690DF1FEFD4
:1001F00040E060E2CE01019694DF60E2CE0101961C
:10020000B1DFF894C0906200D0906300E090640089
:10021000F09065007894BC0180E090E019D12BE16A
:1002200034E14BEF51E4CAD1E2D06C197D098E095B
:100230009F0910D16B017C0120E030E84BE354E4CE
:10024000B9D1181614F416BF20C020E030E84BE3F3
:1002500054E4C701B6015FD01816D4F020E030E0B6
:1002600048E452E4C701B601A5D118168CF420E089
:1002700030E84BE354E4C701B60151D020E030E050
:100280004FE753E49BD1B8D066BFC19AC098B0CFB6
:1002900020E030E048E452E4C701B6013CD0181633
:1002A0005CF020E030E048E452ECC701B60182D1B6
:1002B00087FD02C016BEE9CF20E030E048E452ECF2
:1002C000C701B60128D087FF19C020E030E84BE312
:1002D00054ECC701B6016ED187FD10C020E030E8B4
:1002E0004BE354E4C701B6011AD0905820E030E047
:1002F0004FE753E463D180D066BF0AC020E030E806
:100300004BE354ECC701B60106D087FF71CF16BF8F
:10031000C198C09A6DCFD9D008F481E008950CD06F
:100320000FC107D140F0FED030F021F45F3F19F04B
:10033000F0C0511139C1F3C014D198F39923C9F316
:100340005523B1F3951B550BBB27AA2762177307DB
:10035000840738F09F5F5F4F220F331F441FAA1F8F
:10036000A9F333D00E2E3AF0E0E830D0915050404F
:10037000E695001CCAF729D0FE2F27D0660F771FFD
:10038000881FBB1F261737074807AB07B0E809F0DF
:10039000BB0B802DBF01FF2793585F4F2AF09E3F74
:1003A000510568F0B6C000C15F3FECF3983EDCF346
:1003B000869577956795B795F7959F5FC9F7880FED
:1003C000911D9695879597F90895E1E0660F771F3F
:1003D000881FBB1F621773078407BA0720F0621BD0
:1003E000730B840BBA0BEE1F88F7E095089504D0C9
:1003F0006894B111D9C00895BCD088F09F5790F08F
:10040000B92F9927B751A0F0D1F0660F771F881F39
:10041000991F1AF0BA95C9F712C0B13081F0C3D054
:10042000B1E00895C0C0672F782F8827B85F39F0F2
:10043000B93FCCF3869577956795B395D9F73EF498
:1004400090958095709561957F4F8F4F9F4F089540
:10045000E89409C097FB3EF490958095709561955E
:100460007F4F8F4F9F4F9923A9F0F92F96E9BB2714
:100470009395F695879577956795B795F111F8CF90
:10048000FAF4BB0F11F460FF1BC06F5F7F4F8F4FFB
:100490009F4F16C0882311F096E911C0772321F0F1
:1004A0009EE8872F762F05C0662371F096E8862F89
:1004B00070E060E02AF09A95660F771F881FDAF7E0
:1004C000880F9695879597F90895990F0008550F0D
:1004D000AA0BE0E8FEEF16161706E807F907C0F0CA
:1004E00012161306E407F50798F0621B730B840BD2
:1004F000950B39F40A2661F0232B242B252B21F4AC
:1005000008950A2609F4A140A6958FEF811D811D4B
:10051000089597F99F6780E870E060E008959FEF85
:1005200080EC089500240A9416161706180609068A
:10053000089500240A941216130614060506089559
:10054000092E0394000C11F4882352F0BB0F40F4E1
:10055000BF2B11F460FF04C06F5F7F4F8F4F9F4F21
:10056000089557FD9058440F551F59F05F3F71F0A3
:100570004795880F97FB991F61F09F3F79F087950A
:100580000895121613061406551FF2CF4695F1DF93
:1005900008C0161617061806991FF1CF8695710523
:1005A000610508940895E894BB2766277727CB0157
:1005B00097F908958ADF08F48FEF08950AD0C0CF25
:1005C000B1DF28F0B6DF18F0952309F0A2CFA7CF4E
:1005D000EBCFC7DFA8F39923D9F35523C9F3950FC0
:1005E00050E0551FAA27EE27FF27BB2700240894B9
:1005F000679520F4E20FF31FB41F0A1E220F331F6A
:10060000441FAA1F6695A9F7779530F4F30FB41F1E
:100610000A1E121E08F46395330F441FAA1F221FDF
:10062000769599F7879520F4B40F0A1E121E631F62
:10063000440FAA1F221F331F8695A9F7862F712DFD
:10064000602D11249F5750408AF0E1F088234AF032
:10065000EE0FFF1FBB1F661F771F881F9150504072
:10066000A9F79E3F510570F054CF9ECF5F3FECF34A
:10067000983EDCF3869577956795B795F795E7955E
:100680009F5FC1F7FE2B880F911D9695879597F96F
:100690000895A1E21A2EAA1BBB1BFD010DC0AA1FC3
:1006A000BB1FEE1FFF1FA217B307E407F50720F0DB
:1006B000A21BB30BE40BF50B661F771F881F991F56
:1006C0001A9469F760957095809590959B01AC019F
:0A06D000BD01CF010895F894FFCF9B
:00000001FF
