:100000000C9434000C944B000C9449000C9449005F
:100010000C9449000C9449000C9449000C9449003C
:100020000C9449000C9449000C9449000C9449002C
:100030000C9449000C9449000C9449000C9449001C
:100040000C9449000C9449000C9449000C9449000C
:100050000C9449000C9449000C9449000C944900FC
:100060000C9449000C94490011241FBECFEFD8E036
:10007000DEBFCDBF11E0A0E0B1E0E8EBF5E002C0EB
:1000800005900D92AE32B107D9F70E9460020C9430
:10009000DA020C9400001F920F920FB60F921124F7
:1000A0002F933F934F935F936F937F938F939F9380
:1000B000AF93BF93EF93FF9380E091E00E947501AF
:1000C00064E070E082E44A9903C00E94AC00F8CF7B
:1000D0000E94D500FF91EF91BF91AF919F918F91B9
:1000E0007F916F915F914F913F912F910F900FBE34
:1000F0000F901F901895E89AE9E6F0E08081826001
:10010000808378940895813431F1823459F425B193
:1001100081E090E0062E01C0880F0A94EAF72827B4
:1001200025B90895833459F428B181E090E0062E72
:1001300001C0880F0A94EAF7282728B90895843463
:1001400051F42BB181E090E0062E01C0880F0A9493
:10015000EAF728272BB90895813431F1823459F414
:1001600025B181E090E0062E01C0880F0A94EAF7DD
:10017000282B25B90895833459F428B181E090E003
:10018000062E01C0880F0A94EAF7282B28B9089593
:10019000843451F42BB181E090E0062E01C0880F29
:1001A0000A94EAF7282B2BB90895813449F1823457
:1001B00061F425B181E090E0062E01C0880F0A9419
:1001C000EAF78095822385B90895833461F428B1D4
:1001D00081E090E0062E01C0880F0A94EAF780952E
:1001E000822388B90895843459F42BB181E090E0DA
:1001F000062E01C0880F0A94EAF7809582238BB9F6
:100200000895813449F1823461F424B181E090E0B1
:10021000062E01C0880F0A94EAF78095822384B9DC
:100220000895833461F427B181E090E0062E01C087
:10023000880F0A94EAF78095822387B90895843459
:1002400059F42AB181E090E0062E01C0880F0A948B
:10025000EAF7809582238AB90895813431F1823496
:1002600059F424B181E090E0062E01C0880F0A9471
:10027000EAF7282B24B90895833459F427B181E093
:1002800090E0062E01C0880F0A94EAF7282B27B9C0
:100290000895843451F42AB181E090E0062E01C023
:1002A000880F0A94EAF7282B2AB908951092C500FE
:1002B0008CE08093C400E0ECF0E080818260808379
:1002C00088E18093C10086E08093C20008959091F8
:1002D000C00095FFFCCF8093C60008958091C000B8
:1002E00087FFFCCF8091C60008951F93CF93DF93C3
:1002F000EC0110E0FE01E10FF11D8081882321F067
:100300000E9467011F5FF6CFDF91CF911F91089583
:10031000CF92DF92EF92FF920F931F93CF93DF93D1
:100320007C01D12C062F10E001501109CD2DD0E019
:10033000C017D10744F40E946E01C82E0E946701C5
:100340008DE0C8120CC0CE0DDF1D1882DF91CF9159
:100350001F910F91FF90EF90DF90CF900895CE0DF9
:10036000DF1DC882D394E2CFCF93C82F64E60E94EA
:10037000BA02805D0E9467012AE08C2F622F0E94E2
:10038000BA02C92F0E94BA0280E3890F0E94670156
:1003900080E38C0FCF910C9467010F931F93CF9341
:1003A000DF93EC0160E177E20E94C60280E3860FF2
:1003B0000E946701CE0168EE73E00E94C602CB0185
:1003C0000AE010E0B8010E94C602805D0E94670149
:1003D000CE0164E670E00E94C602CB01B8010E9423
:1003E000C602805D0E946701CE01B8010E94C6026C
:1003F000C82FCB01B8010E94C602805D0E94670130
:1004000080E38C0FDF91CF911F910F910C946701C6
:100410001F93CF93DF931F92CDB7DEB7898317E089
:10042000898190E0012E02C0959587950A94E2F7A4
:1004300080FF02C081E301C080E30E946701115088
:1004400078F70F90DF91CF911F9108958A3010F4C3
:10045000805D0895895C0895CF93C82F82958F7031
:100460000E9426020E9467018C2F8F700E94260234
:10047000CF910C9467010F931F93CF93DF93D0E339
:10048000C0E300E30E946E01182F0E9467011D3037
:1004900021F00C2FCD2FD12FF5CFD053005384E670
:1004A000089FD00D11249C2F990F9056892F880FEB
:1004B000880F890F8D0FDF91CF911F910F910895B4
:1004C000CF93DF93CDB7DEB7A0970FB6F894DEBF1A
:1004D0000FBECDBF52985A9A0E947B0064E070E034
:1004E00082E40E942D010E9456012FE38DE093E0EB
:1004F000215080409040E1F700C0000082E191E08F
:100500000E94750160E2CE0101960E94880164E0BC
:1005100070E082E40E94AC008FE493EC0197F1F765
:1005200000C0000064E070E082E40E94D5009FEF0C
:1005300020E782E0915020408040E1F700C00000B9
:1005400064E070E082E40E9483008FE493EC019702
:10055000F1F700C0000064E070E082E40E948300D4
:100560009FEF20E782E0915020408040E1F700C0FB
:100570000000CDCF991B79E004C0991F961708F0B1
:10058000961B881F7A95C9F780950895AA1BBB1BF7
:1005900051E107C0AA1FBB1FA617B70710F0A61B83
:1005A000B70B881F991F5A95A9F780959095BC01A4
:0805B000CD010895F894FFCF7E
:1005B800496E746572727570742068657265210D74
:1005C8000A00507265737320456E74657220746FEB
:0E05D80020636F6E74696E7565200D0A000059
:00000001FF
