:100000000C9434000C9451000C9451000C94530047
:100010000C9451000C9451000C9451000C9451001C
:100020000C9451000C9451000C9451000C9451000C
:100030000C9451000C9451000C9451000C945100FC
:100040000C9451000C9451000C9451000C945100EC
:100050000C9451000C9451000C9451000C945100DC
:100060000C9451000C94510011241FBECFEFD8E026
:10007000DEBFCDBF11E0A0E0B1E0E2ECF2E102C0F2
:1000800005900D92A234B107D9F711E0A2E4B1E0D6
:1000900001C01D92A834B107E1F70E9410030C942F
:1000A0005F090C9400001F920F920FB60F9211245B
:1000B0008F939F93AF93BF9383B193B1827092FB61
:1000C000992790F9892B8093420180914301880FF1
:1000D000880F809343019091430180914201892BC5
:1000E0008093430180914301873899F480914401C2
:1000F00090914501A0914601B09147010197A10956
:10010000B1098093440190934501A0934601B093B7
:100110004701809143018B3499F48091440190917F
:100120004501A0914601B09147010196A11DB11D65
:100130008093440190934501A0934601B0934701F9
:10014000BF91AF919F918F910F900FBE0F901F9015
:100150001895ECE7F0E0808180648083EAE7F0E0C6
:1001600080818560808380818068808308959091FC
:100170007C00907F982B90937C0080917A00806423
:1001800080937A0080917A0086FDFCCF8091780080
:1001900090917900089520E0261731F0FC014193F9
:1001A0005193CF012F5FF8CF0895CF93DF9370E085
:1001B000EB01C150D048CC0FDD1FC80FD91F90E014
:1001C00061507109292F30E02617370744F4FE01EA
:1001D00032912291398328839F5FEF01F3CF842FDF
:1001E0000E94B70099838883DF91CF910895FC0125
:1001F000362F60E070E0CB0120E0231741F0419101
:100200005191640F751F811D911D2F5FF6CF30E056
:1002100040E050E00E946C06C901089584B58360F7
:1002200084BD84B5806A84BD85B5816085BD569ADC
:100230000895549A579A64E070E084E40E9485011E
:1002400067E070E084E40C94850121982298E8E648
:10025000F0E0808181608083EBE6F0E08081866061
:10026000808378940895813431F1823459F425B132
:1002700081E090E0062E01C0880F0A94EAF7282753
:1002800025B90895833459F428B181E090E0062E11
:1002900001C0880F0A94EAF7282728B90895843402
:1002A00051F42BB181E090E0062E01C0880F0A9432
:1002B000EAF728272BB90895813431F1823459F4B3
:1002C00025B181E090E0062E01C0880F0A94EAF77C
:1002D000282B25B90895833459F428B181E090E0A2
:1002E000062E01C0880F0A94EAF7282B28B9089532
:1002F000843451F42BB181E090E0062E01C0880FC8
:100300000A94EAF7282B2BB90895813449F18234F5
:1003100061F425B181E090E0062E01C0880F0A94B7
:10032000EAF78095822385B90895833461F428B172
:1003300081E090E0062E01C0880F0A94EAF78095CC
:10034000822388B90895843459F42BB181E090E078
:10035000062E01C0880F0A94EAF7809582238BB994
:100360000895813449F1823461F424B181E090E050
:10037000062E01C0880F0A94EAF78095822384B97B
:100380000895833461F427B181E090E0062E01C026
:10039000880F0A94EAF78095822387B908958434F8
:1003A00059F42AB181E090E0062E01C0880F0A942A
:1003B000EAF7809582238AB90895813431F1823435
:1003C00059F424B181E090E0062E01C0880F0A9410
:1003D000EAF7282B24B90895833459F427B181E032
:1003E00090E0062E01C0880F0A94EAF7282B27B95F
:1003F0000895843451F42AB181E090E0062E01C0C2
:10040000880F0A94EAF7282B2AB908951092C5009C
:100410008CE08093C400E0ECF0E080818260808317
:1004200088E18093C10086E08093C2000895909196
:10043000C00095FFFCCF8093C60008958091C00056
:1004400087FFFCCF8091C60008951F93CF93DF9361
:10045000EC0110E0FE01E10FF11D8081882321F005
:100460000E9417021F5FF6CFDF91CF911F91089571
:10047000CF92DF92EF92FF920F931F93CF93DF9370
:100480007C01D12C062F10E001501109CD2DD0E0B8
:10049000C017D10744F40E941E02C82E0E94170202
:1004A0008DE0C8120CC0CE0DDF1D1882DF91CF91F8
:1004B0001F910F91FF90EF90DF90CF900895CE0D98
:1004C000DF1DC882D394E2CFCF93C82F64E60E9489
:1004D0004C06805D0E9417022AE08C2F622F0E943A
:1004E0004C06C92F0E944C0680E3890F0E94170218
:1004F00080E38C0FCF910C9417020F931F93CF932F
:10050000DF93EC0160E177E20E94580680E3860FFA
:100510000E941702CE0168EE73E00E945806CB01DC
:100520000AE010E0B8010E945806805D0E941702A0
:10053000CE0164E670E00E945806CB01B8010E942B
:100540005806805D0E941702CE01B8010E9458062D
:10055000C82FCB01B8010E945806805D0E94170287
:1005600080E38C0FDF91CF911F910F910C941702B4
:100570001F93CF93DF931F92CDB7DEB7898317E028
:10058000898190E0012E02C0959587950A94E2F743
:1005900080FF02C081E301C080E30E941702115076
:1005A00078F70F90DF91CF911F9108958A3010F462
:1005B000805D0895895C0895CF93C82F82958F70D0
:1005C0000E94D6020E9417028C2F8F700E94D602C2
:1005D000CF910C9417020F931F93CF93DF93D0E327
:1005E000C0E300E30E941E02182F0E9417021D3074
:1005F00021F00C2FCD2FD12FF5CFD053005384E60F
:10060000089FD00D11249C2F990F9056892F880F89
:10061000880F890F8D0FDF91CF911F910F91089552
:10062000CF93DF93CDB7DEB7C658D1090FB6F89494
:10063000DEBF0FBECDBF0E94060280E091E00E94A7
:1006400025020E94A9000E9419010E940E010E9429
:10065000250140E050E060E2CE0101960E94CB000F
:1006600035E1232E31E0332ECE0182599F4FEF9694
:100670009FAF8EAFEF97DE01A15ABF4FC158DF4F3A
:10068000B983A883CF57D040CE01805B9F4FCF570F
:10069000DF4F99838883C158D0408E010F5B1F4F75
:1006A00040E060E2CE0101960E94D50060E2CE01FA
:1006B00001960E94F700BC0180E090E00E943305A3
:1006C0002BEC3BE24FEA51E40E94E9050E9402054F
:1006D0002B013C01F8948090440190904501A0903A
:1006E0004601B09047017894DC01CB018819990943
:1006F000AA09BB09CD57DF4F88839983AA83BB839F
:10070000C358D040BC01CD010E9435056B017C016E
:1007100020E030E84BE354E40E94E50518161CF491
:100720009FEF97BD25C020E030E84BE354E4C701BC
:10073000B6010E94960418161CF120E030E048E44F
:1007400052E4C701B6010E94E5051816CCF420E07A
:1007500030E84BE354E4C701B6010E949A0420E05C
:1007600030E04FE753E40E94E9050E94070567BDAA
:1007700064E070E084E40E945C0167E070E050C0D7
:1007800020E030E048E452E4C701B6010E9496043C
:10079000181664F020E030E048E452ECC701B601DE
:1007A0000E94E50587FD02C017BCE2CF20E030E0E3
:1007B00048E452ECC701B6010E94960487FF1DC0B1
:1007C00020E030E84BE354ECC701B6010E94E50598
:1007D00087FD13C020E030E84BE354E4C701B601C5
:1007E0000E949A04905820E030E04FE753E40E94C2
:1007F000E9050E94070567BD0CC020E030E84BE327
:1008000054ECC701B6010E94960487FF0CC0AFEFFD
:10081000A7BD67E070E084E40E945C0164E070E0E2
:1008200084E40E9485017F926F925F924F923F9283
:100830002F92EF96BFADEF97BF93EE968FADEE97E9
:100840008F930E948E06BF92AF929F928F923F929B
:100850002F92C058DF4F9881C058D0409F93C15805
:10086000DF4FA881CF57D040AF930E948E06CA5762
:10087000DF4FB881C658D040BF93CB57DF4F888138
:10088000C558D0408F93CC57DF4F9881C458D04083
:100890009F93CD57DF4FA881C358D040AF933F926D
:1008A0002F92CE57DF4FB881C258D040BF93CF5759
:1008B000DF4F8881C158D0408F930E948E0687B544
:1008C0001F928F93A9E1B1E0BF93AF931F930F9352
:1008D0000E948E068CE191E00E942502CE01825991
:1008E0009F4F0E94250286E291E00E942502CE01E0
:1008F000815A9F4F0E94250281E391E00E942502C8
:10090000CE01805B9F4F0E9425028AE391E00E9406
:100910002502C8010E94250282E191E00E94250281
:100920000FB6F894DEBF0FBECDBFBACED9D008F453
:1009300081E008950CD00FC107D140F0FED030F017
:1009400021F45F3F19F0F0C0511139C1F3C014D147
:1009500098F39923C9F35523B1F3951B550BBB2786
:10096000AA2762177307840738F09F5F5F4F220F33
:10097000331F441FAA1FA9F333D00E2E3AF0E0E82C
:1009800030D091505040E695001CCAF729D0FE2F78
:1009900027D0660F771F881FBB1F2617370748070A
:1009A000AB07B0E809F0BB0B802DBF01FF279358C0
:1009B0005F4F2AF09E3F510568F0B6C000C15F3F0F
:1009C000ECF3983EDCF3869577956795B795F795A8
:1009D0009F5FC9F7880F911D9695879597F90895A0
:1009E000E1E0660F771F881FBB1F6217730784073C
:1009F000BA0720F0621B730B840BBA0BEE1F88F74B
:100A0000E095089504D06894B111D9C00895BCD080
:100A100088F09F5790F0B92F9927B751A0F0D1F0E7
:100A2000660F771F881F991F1AF0BA95C9F712C071
:100A3000B13081F0C3D0B1E00895C0C0672F782FE6
:100A40008827B85F39F0B93FCCF3869577956795DD
:100A5000B395D9F73EF490958095709561957F4F49
:100A60008F4F9F4F0895E89409C097FB3EF49095EF
:100A70008095709561957F4F8F4F9F4F9923A9F077
:100A8000F92F96E9BB279395F69587957795679506
:100A9000B795F111F8CFFAF4BB0F11F460FF1BC04A
:100AA0006F5F7F4F8F4F9F4F16C0882311F096E9DD
:100AB00011C0772321F09EE8872F762F05C066238B
:100AC00071F096E8862F70E060E02AF09A95660F44
:100AD000771F881FDAF7880F9695879597F90895FD
:100AE000990F0008550FAA0BE0E8FEEF161617063F
:100AF000E807F907C0F012161306E407F50798F0A7
:100B0000621B730B840B950B39F40A2661F0232BBF
:100B1000242B252B21F408950A2609F4A140A6953B
:100B20008FEF811D811D089597F99F6780E870E020
:100B300060E008959FEF80EC089500240A94161653
:100B4000170618060906089500240A9412161306BB
:100B5000140605060895092E0394000C11F4882349
:100B600052F0BB0F40F4BF2B11F460FF04C06F5F65
:100B70007F4F8F4F9F4F089557FD9058440F551F3B
:100B800059F05F3F71F04795880F97FB991F61F00F
:100B90009F3F79F087950895121613061406551F86
:100BA000F2CF4695F1DF08C0161617061806991FF2
:100BB000F1CF86957105610508940895E894BB27E7
:100BC00066277727CB0197F908958ADF08F48FEF1E
:100BD00008950BD0C0CFB1DF28F0B6DF18F0952311
:100BE00009F0A2CFA7CF1124EACFC6DFA0F3959FCB
:100BF000D1F3950F50E0551F629FF001729FBB2704
:100C0000F00DB11D639FAA27F00DB11DAA1F649FAF
:100C10006627B00DA11D661F829F2227B00DA11D62
:100C2000621F739FB00DA11D621F839FA00D611DE8
:100C3000221F749F3327A00D611D231F849F600D09
:100C4000211D822F762F6A2F11249F5750408AF042
:100C5000E1F088234AF0EE0FFF1FBB1F661F771FCE
:100C6000881F91505040A9F79E3F510570F05CCF0E
:100C7000A6CF5F3FECF3983EDCF3869577956795BA
:100C8000B795F795E7959F5FC1F7FE2B880F911DEC
:100C90009695879597F90895991B79E004C0991F57
:100CA000961708F0961B881F7A95C9F780950895C6
:100CB000AA1BBB1B51E107C0AA1FBB1FA617B70782
:100CC00010F0A61BB70B881F991F5A95A9F780959E
:100CD0009095BC01CD010895A1E21A2EAA1BBB1B61
:100CE000FD010DC0AA1FBB1FEE1FFF1FA217B307F8
:100CF000E407F50720F0A21BB30BE40BF50B661F0E
:100D0000771F881F991F1A9469F7609570958095D1
:100D100090959B01AC01BD01CF010895AEE0B0E01C
:100D2000E4E9F6E00C9436090D891E8986E08C838F
:100D30001A8309838FEF9FE79E838D83AE01475E01
:100D40005F4F6F89788DCE0101960E94B006EF81CA
:100D5000F885E00FF11F10822E96E4E00C94520902
:100D6000ACE0B0E0E6EBF6E00C9428097C016B0106
:100D70008A01FC0117821682838181FFBDC1CE01E9
:100D800001964C01F7019381F60193FD859193FF44
:100D900081916F01882309F4ABC1853239F493FD49
:100DA000859193FF81916F01853229F4B70190E01D
:100DB0000E949808E7CF512C312C20E02032A0F47B
:100DC0008B3269F030F4803259F0833269F420615B
:100DD0002CC08D3239F0803339F4216026C0226076
:100DE000246023C0286021C027FD27C030ED380FC4
:100DF0003A3078F426FF06C0FAE05F9E300D1124E9
:100E0000532E13C08AE0389E300D1124332E2062F9
:100E10000CC08E3221F426FD6BC1206406C08C36D6
:100E200011F4206802C0883641F4F60193FD8591E3
:100E300093FF81916F018111C1CF982F9F7D9554B0
:100E4000933028F40C5F1F4FFFE3F9830DC0833606
:100E500031F0833771F0833509F05BC022C0F801AF
:100E6000808189830E5F1F4F44244394512C540189
:100E700015C03801F2E06F0E711CF801A080B1803E
:100E800026FF03C0652D70E002C06FEF7FEFC50144
:100E90002C870E948D082C0183012C852F77222E10
:100EA00017C03801F2E06F0E711CF801A080B1800C
:100EB00026FF03C0652D70E002C06FEF7FEFC50114
:100EC0002C870E9482082C012C852068222E830109
:100ED00023FC1BC0832D90E048165906B0F4B701DF
:100EE00080E290E00E9498083A94F4CFF50127FC44
:100EF000859127FE81915F01B70190E00E949808DB
:100F000031103A94F1E04F1A51084114510471F72D
:100F1000E5C0843611F0893639F5F80127FF07C09E
:100F200060817181828193810C5F1F4F08C0608155
:100F30007181882777FD8095982F0E5F1F4F2F7640
:100F4000B22E97FF09C090958095709561957F4F5F
:100F50008F4F9F4F2068B22E2AE030E0A4010E94FC
:100F6000CA08A82EA81844C0853729F42F7EB22EAF
:100F70002AE030E025C0F22FF97FBF2E8F36C1F076
:100F800018F4883579F0B4C0803719F0883721F02B
:100F9000AFC02F2F2061B22EB4FE0DC08B2D846008
:100FA000B82E09C024FF0AC09F2F9660B92E06C034
:100FB00028E030E005C020E130E002C020E132E06E
:100FC000F801B7FE07C060817181828193810C5F57
:100FD0001F4F06C06081718180E090E00E5F1F4F5F
:100FE000A4010E94CA08A82EA818FB2DFF77BF2EC7
:100FF000B6FE0BC02B2D2E7FA51450F4B4FE0AC0F4
:10100000B2FC08C02B2D2E7E05C07A2C2B2D03C0E0
:101010007A2C01C0752C24FF0DC0FE01EA0DF11DD4
:101020008081803311F4297E09C022FF06C07394A9
:10103000739404C0822F867809F0739423FD13C043
:1010400020FF06C05A2C731418F4530C5718732C35
:10105000731468F4B70180E290E02C870E9498082E
:1010600073942C85F5CF731410F4371801C0312C0C
:1010700024FF12C0B70180E390E02C870E949808FB
:101080002C8522FF17C021FF03C088E590E002C035
:1010900088E790E0B7010CC0822F867859F021FDD7
:1010A00002C080E201C08BE227FD8DE2B70190E033
:1010B0000E949808A51438F4B70180E390E00E94DC
:1010C00098085A94F7CFAA94F401EA0DF11D808193
:1010D000B70190E00E949808A110F5CF332009F4E1
:1010E00051CEB70180E290E00E9498083A94F6CF82
:1010F000F7018681978102C08FEF9FEF2C96E2E186
:101100000C944409FC010590615070400110D8F71F
:10111000809590958E0F9F1F0895FC01615070403F
:1011200001900110D8F7809590958E0F9F1F08951C
:101130000F931F93CF93DF93182F092FEB018B8110
:1011400081FD03C08FEF9FEF20C082FF10C04E8152
:101150005F812C813D81421753077CF4E881F9813E
:101160009F012F5F3F4F39832883108306C0E88596
:10117000F985812F0995892B29F72E813F812F5FD2
:101180003F4F3F832E83812F902FDF91CF911F916F
:101190000F910895FA01AA27283051F1203181F1E9
:1011A000E8946F936E7F6E5F7F4F8F4F9F4FAF4F6F
:1011B000B1E03ED0B4E03CD0670F781F891F9A1F82
:1011C000A11D680F791F8A1F911DA11D6A0F711D36
:1011D000811D911DA11D20D009F468943F912AE042
:1011E000269F11243019305D3193DEF6CF0108952A
:1011F000462F4770405D4193B3E00FD0C9F7F6CF5B
:10120000462F4F70405D4A3318F0495D31FD405222
:10121000419302D0A9F7EACFB4E0A69597958795B8
:1012200077956795BA95C9F7009761057105089597
:101230009B01AC010A2E0694579547953795279543
:10124000BA95C9F7620F731F841F951FA01D0895DB
:101250002F923F924F925F926F927F928F929F92C6
:10126000AF92BF92CF92DF92EF92FF920F931F93B4
:10127000CF93DF93CDB7DEB7CA1BDB0B0FB6F89465
:10128000DEBF0FBECDBF09942A88398848885F84A5
:101290006E847D848C849B84AA84B984C884DF8016
:1012A000EE80FD800C811B81AA81B981CE0FD11DFA
:1012B0000FB6F894DEBF0FBECDBFED010895F894D0
:0212C000FFCF5E
:1012C200555341525420496E697469616C697A655B
:1012D20064210D0A00256C6400256400646573694D
:1012E2007265643A20002063757272656E743A20EA
:1012F20000206572726F723A200020647574793A28
:021302002000C9
:00000001FF
