:100000000C9434000C9449000C9449000C94490061
:100010000C9449000C9449000C9449000C9449003C
:100020000C9449000C9449000C9449000C9449002C
:100030000C9449000C9449000C9449000C9449001C
:100040000C9449000C9449000C9449000C9449000C
:100050000C9449000C9449000C9449000C944900FC
:100060000C9449000C94490011241FBECFEFD8E036
:10007000DEBFCDBF11E0A0E0B1E0E6E0F5E002C0F8
:1000800005900D92AC31B107D9F70E9428020C946B
:1000900081020C940000813431F1823459F425B18D
:1000A00081E090E0062E01C0880F0A94EAF7282725
:1000B00025B90895833459F428B181E090E0062EE3
:1000C00001C0880F0A94EAF7282728B908958434D4
:1000D00051F42BB181E090E0062E01C0880F0A9404
:1000E000EAF728272BB90895813431F1823459F485
:1000F00025B181E090E0062E01C0880F0A94EAF74E
:10010000282B25B90895833459F428B181E090E073
:10011000062E01C0880F0A94EAF7282B28B9089503
:10012000843451F42BB181E090E0062E01C0880F99
:100130000A94EAF7282B2BB90895813449F18234C7
:1001400061F425B181E090E0062E01C0880F0A9489
:10015000EAF78095822385B90895833461F428B144
:1001600081E090E0062E01C0880F0A94EAF780959E
:10017000822388B90895843459F42BB181E090E04A
:10018000062E01C0880F0A94EAF7809582238BB966
:100190000895813449F1823461F424B181E090E022
:1001A000062E01C0880F0A94EAF78095822384B94D
:1001B0000895833461F427B181E090E0062E01C0F8
:1001C000880F0A94EAF78095822387B908958434CA
:1001D00059F42AB181E090E0062E01C0880F0A94FC
:1001E000EAF7809582238AB90895813431F1823407
:1001F00059F424B181E090E0062E01C0880F0A94E2
:10020000EAF7282B24B90895833459F427B181E003
:1002100090E0062E01C0880F0A94EAF7282B27B930
:100220000895843451F42AB181E090E0062E01C093
:10023000880F0A94EAF7282B2AB908951092C5006E
:100240008CE08093C400E0ECF0E0808182608083E9
:1002500088E18093C10086E08093C2000895909168
:10026000C00095FFFCCF8093C60008958091C00028
:1002700087FFFCCF8091C60008951F93CF93DF9333
:10028000EC0110E0FE01E10FF11D8081882321F0D7
:100290000E942F011F5FF6CFDF91CF911F9108952C
:1002A000CF92DF92EF92FF920F931F93CF93DF9342
:1002B0007C01D12C062F10E001501109CD2DD0E08A
:1002C000C017D10744F40E943601C82E0E942F01A6
:1002D0008DE0C8120CC0CE0DDF1D1882DF91CF91CA
:1002E0001F910F91FF90EF90DF90CF900895CE0D6A
:1002F000DF1DC882D394E2CFCF93C82F64E60E945B
:100300006102805D0E942F012AE08C2F622F0E94E3
:100310006102C92F0E94610280E3890F0E942F01B0
:1003200080E38C0FCF910C942F010F931F93CF93E9
:10033000DF93EC0160E177E20E946D0280E3860FBB
:100340000E942F01CE0168EE73E00E946D02CB0186
:100350000AE010E0B8010E946D02805D0E942F014A
:10036000CE0164E670E00E946D02CB01B8010E94EC
:100370006D02805D0E942F01CE01B8010E946D02C6
:10038000C82FCB01B8010E946D02805D0E942F0131
:1003900080E38C0FDF91CF911F910F910C942F016F
:1003A0001F93CF93DF931F92CDB7DEB7898317E0FA
:1003B000898190E0012E02C0959587950A94E2F715
:1003C00080FF02C081E301C080E30E942F01115031
:1003D00078F70F90DF91CF911F9108958A3010F434
:1003E000805D0895895C0895CF93C82F82958F70A2
:1003F0000E94EE010E942F018C2F8F700E94EE014F
:10040000CF910C942F010F931F93CF93DF93D0E3E1
:10041000C0E300E30E943601182F0E942F011D3017
:1004200021F00C2FCD2FD12FF5CFD053005384E6E0
:10043000089FD00D11249C2F990F9056892F880F5B
:10044000880F890F8D0FDF91CF911F910F91089524
:10045000CF93DF93CDB7DEB7A0970FB6F894DEBF8A
:100460000FBECDBF8AB11AB88BB18FEF8BB9249A6A
:100470002C982FE181EA97E0215080409040E1F7ED
:1004800000C000000E941E0180E091E00E943D013A
:1004900060E2CE0101960E94500187EA91E6019741
:1004A000F1F700C0000019B1812F0E94D00188E14E
:1004B00091E00E943D011B3F11F42C9AEECF2C9845
:1004C000ECCF991B79E004C0991F961708F0961B92
:1004D000881F7A95C9F780950895AA1BBB1B51E127
:1004E00007C0AA1FBB1FA617B70710F0A61BB70BA4
:1004F000881F991F5A95A9F780959095BC01CD0149
:060500000895F894FFCFFE
:10050600507265737320456E74657220746F206334
:0C0516006F6E74696E7565200D0A0000A0
:00000001FF
