:100000000C9434000C943E000C943E000C943E0082
:100010000C943E000C943E000C943E000C943E0068
:100020000C943E000C943E000C943E000C943E0058
:100030000C943E000C943E000C943E000C943E0048
:100040000C943E000C943E000C943E000C943E0038
:100050000C943E000C943E000C943E000C943E0028
:100060000C943E000C943E0011241FBECFEFD8E04C
:10007000DEBFCDBF0E94C2020C9430060C9400007B
:10008000ECE7F0E0808180648083EAE7F0E0808143
:1000900083608083808180688083089590917C0054
:1000A000907F982B90937C0080917A00806480935D
:1000B0007A0080917A0086FDFCCF20917800309103
:1000C0007900C901089520E005C0FC0141935193D6
:1000D000CF012F5F2613F9CF0895CF93DF9370E000
:1000E00061507109EB01CC0FDD1FC80FD91F90E0E3
:1000F00007C0FE0132912291398328839F5FEF016F
:10010000292F30E026173707A4F3842F0E944E00D2
:1001100099838883DF91CF910895FC01362F60E0A9
:1001200070E0CB0120E007C041915191640F751F31
:10013000811D911D2F5F2313F7CF30E040E050E089
:100140000E940E06C9010895E0E8F0E08081826017
:100150008083A1E8B0E08C9188618C938C91816060
:100160008C9380E593EC9093870080938600808148
:1001700080688083808180628083219A229A08959A
:1001800084B5836084BD84B5806A84BD85B5816093
:1001900085BD8AB180668AB90895209A249A249AE6
:1001A000259A60E070E082E40E94370164E070E02C
:1001B00084E40E94370164E070E082E40E94370129
:1001C00065E070E082E40C943701813431F18234CF
:1001D00059F425B181E090E0062E01C0880F0A9401
:1001E000EAF7282725B90895833459F428B181E026
:1001F00090E0062E01C0880F0A94EAF7282728B954
:100200000895843451F42BB181E090E0062E01C0B2
:10021000880F0A94EAF728272BB90895813431F121
:10022000823459F425B181E090E0062E01C0880F98
:100230000A94EAF7282B25B90895833459F428B194
:1002400081E090E0062E01C0880F0A94EAF7282B7F
:1002500028B90895843451F42BB181E090E0062E42
:1002600001C0880F0A94EAF7282B2BB9089581342E
:1002700049F1823461F425B181E090E0062E01C09D
:10028000880F0A94EAF78095822385B9089583340C
:1002900061F428B181E090E0062E01C0880F0A9435
:1002A000EAF78095822388B90895843459F42BB1F4
:1002B00081E090E0062E01C0880F0A94EAF780954D
:1002C00082238BB90895813449F1823461F424B1D9
:1002D00081E090E0062E01C0880F0A94EAF780952D
:1002E000822384B90895833461F427B181E090E0DA
:1002F000062E01C0880F0A94EAF78095822387B9F9
:100300000895843459F42AB181E090E0062E01C0AA
:10031000880F0A94EAF7809582238AB90895813478
:1003200031F1823459F424B181E090E0062E01C00D
:10033000880F0A94EAF7282B24B90895833459F4D6
:1003400027B181E090E0062E01C0880F0A94EAF7F9
:10035000282B27B90895843451F42AB181E090E024
:10036000062E01C0880F0A94EAF7282B2AB90895AF
:100370001092C5008CE08093C400E0ECF0E0808136
:100380008260808388E18093C10086E08093C20010
:1003900008959091C00095FFFCCF8093C60008950A
:1003A0008091C00087FFFCCF8091C60008951F9305
:1003B000CF93DF93EC0110E003C00E94C9011F5FDF
:1003C000FE01E10FF11D80818111F7CFDF91CF9107
:1003D0001F910895CF92DF92EF92FF920F931F9398
:1003E000CF93DF938C01D12CC62FD0E0219712C080
:1003F0000E94D001C82E0E94C9018DE0C81205C01C
:10040000F801ED0DF11D10820BC0F801EE0DFF1D7E
:10041000C082D394ED2CF12CEC16FD064CF3F0CFFA
:10042000DF91CF911F910F91FF90EF90DF90CF90D0
:100430000895CF93C82F64E60E94EE05805D0E9468
:10044000C9012AE08C2F622F0E94EE05C92F0E945D
:10045000EE05892F805D0E94C9018C2F805DCF91B0
:100460000C94C9010F931F93CF93DF93EC0160E1CC
:1004700077E20E94FA05862F805D0E94C901CE01B5
:1004800068EE73E00E94FA05CB010AE010E0B801C3
:100490000E94FA05805D0E94C901CE0164E670E009
:1004A0000E94FA05CB01B8010E94FA05805D0E9406
:1004B000C901CE01B8010E94FA05C82FCB01B801CD
:1004C0000E94FA05805D0E94C9018C2F805DDF913A
:1004D000CF911F910F910C94C9011F93CF93DF937C
:1004E0001F92CDB7DEB7898317E0898190E0012E96
:1004F00002C0959587950A94E2F780FF02C081E3D8
:1005000001C080E30E94C901115078F70F90DF917C
:10051000CF911F9108958A3010F4805D0895895C11
:100520000895CF93C82F82958F700E948B020E94EE
:10053000C9018C2F8F700E948B02CF910C94C9013E
:100540000F931F93CF93DF93D0E3C0E300E303C087
:10055000D12FC82F092F0E94D001182F0E94C90146
:100560009C2F8D2F1D30A1F7805D94E6099F800D93
:1005700011249AE0C99F800D1124DF91CF911F9122
:100580000F910895CF93DF93CDB7DEB7C85AD1400E
:100590000FB6F894DEBF0FBECDBF0E9440000E9490
:1005A000A4000E94CD000E94C0005E0183EDA81A45
:1005B0008EEFB80A4FEF51E06EE1C5010E94630073
:1005C0006E0187E9C81A8EEFD80A4FEF51E06EE14D
:1005D000C6010E94630040E050E06BE4EE24E39427
:1005E000F12CEC0EFD1EC7010E9463008E0109561E
:1005F0001F4F40E050E06BE4C8010E946300CB5500
:10060000DE4FA882C55AD140CA55DE4FB882C65ABD
:10061000D1409C2C8D2C7E2C6F2C502E412E40E0F6
:100620006EE1CB55DE4F8881C55AD140CA55DE4FA9
:100630009881C65AD1400E946D006EE1CB55DE4FC5
:100640008881C55AD140CA55DE4F9881C65AD140DB
:100650000E948D007C0141E06EE1892D982D0E9461
:100660006D006EE1892D982D0E948D008C0142E075
:100670006BE4872D962D0E946D006BE4872D962DDF
:100680000E948D005C0143E06BE4852D942D0E9457
:100690006D006BE4852D942D0E948D006C01C801C6
:1006A0008F5A91408536910598F00F5F1140C8012F
:1006B00017FD0196959587951701281A390A17FF96
:1006C00002C00F5F1F4F159507950E0D1F1D02C02D
:1006D00087011701211484E038061CF437FC06C09A
:1006E00007C022242A9433E0332E02C0212C312C5F
:1006F000011584E018071CF417FD04C005C00FEFB6
:1007000013E002C000E010E060E070E084E1281631
:1007100082E03806A4F082E40E940E0164E070E0FA
:1007200084E40E943701B101882777FD8095982FD6
:100730000E94FF0420E030E440E054E41AC08FEA55
:10074000281681E0380604F582E40E94370164E04F
:1007500070E084E40E940E01B101882777FD809546
:10076000982F0E94FF049B01AC0160E070E08FEFC6
:1007700093E40E946C0420E030E040E05FE30E94DC
:100780008B051B017C010CC082E40E94370164E0F0
:1007900070E084E40E943701212C312CE12CF12CF3
:1007A00064E070E0043182E01807A4F082E40E9463
:1007B000370165E070E082E40E940E01B8018827ED
:1007C00077FD8095982F0E94FF0420E030E440E000
:1007D00054E419C00F3A81E018070CF582E40E9436
:1007E0000E0165E070E082E40E943701B8018827BD
:1007F00077FD8095982F0E94FF049B01AC0160E07B
:1008000070E08FEF93E40E946C0420E030E040E061
:100810005FE30E948B05362F272F8C010CC082E4EA
:100820000E94370165E070E082E40E94370130E009
:1008300020E000E010E0622D732D8E2D9F2DC85515
:10084000DE4F2883C85AD140C955DE4F3883C75A76
:10085000D1400E94D10467BDC955DE4F3881C75AC7
:10086000D140C855DE4F2881C85AD140632F722F1E
:10087000802F912F0E94D10468BDB50180E090E0E7
:100880000E94FD0421E73DE34AEF5FE30E948B05F0
:1008900020E030E04AEF53E40E946D040E94D1044E
:1008A0007093890060938800B60180E090E00E9418
:1008B000FD0421E73DE34AEF5FE30E948B0520E062
:1008C00030E04AEF53E40E946D040E94D10470931B
:1008D0008B0060938A00A3CE5058BB27AA270ED066
:1008E000E0C0D1D030F0D6D020F031F49F3F11F4E9
:1008F0001EF4C6C00EF4E095E7FBBCC0E92FE2D0C1
:1009000080F3BA17620773078407950718F071F42C
:100910009EF5FAC00EF4E0950B2EBA2FA02D0B0118
:10092000B90190010C01CA01A0011124FF27591B34
:1009300099F0593F50F4503E68F11A16F040A22F3A
:10094000232F342F4427585FF3CF469537952795AB
:10095000A795F0405395C9F77EF41F16BA0B620BAA
:10096000730B840BBAF09150A1F0FF0FBB1F661FF1
:10097000771F881FC2F70EC0BA0F621F731F841F34
:1009800048F4879577956795B795F7959E3F08F05A
:10099000B3CF9395880F08F09927EE0F9795879519
:1009A000089598D088F09F5790F0B92F9927B751A4
:1009B000A0F0D1F0660F771F881F991F1AF0BA9523
:1009C000C9F712C0B13081F09FD0B1E008959CC04A
:1009D000672F782F8827B85F39F0B93FCCF3869519
:1009E00077956795B395D9F73EF490958095709576
:1009F00061957F4F8F4F9F4F0895E89409C097FBF3
:100A00003EF490958095709561957F4F8F4F9F4FE5
:100A10009923A9F0F92F96E9BB279395F695879529
:100A200077956795B795F111F8CFFAF4BB0F11F4EC
:100A300060FF1BC06F5F7F4F8F4F9F4F16C0882393
:100A400011F096E911C0772321F09EE8872F762FC9
:100A500005C0662371F096E8862F70E060E02AF00A
:100A60009A95660F771F881FDAF7880F96958795F6
:100A700097F9089597F99F6780E870E060E008951E
:100A80009FEF80EC089500240A94161617061806A6
:100A90000906089500240A94121613061406050682
:100AA0000895092E0394000C11F4882352F0BB0F13
:100AB00040F4BF2B11F460FF04C06F5F7F4F8F4F76
:100AC0009F4F089557FD9058440F551F59F05F3FB1
:100AD00071F04795880F97FB991F61F09F3F79F060
:100AE00087950895121613061406551FF2CF4695E2
:100AF000F1DF08C0161617061806991FF1CF869564
:100B00007105610508940895E894BB276627772747
:100B1000CB0197F908950BD0C4CFB5DF28F0BADF29
:100B200018F0952309F0A6CFABCF1124EECFCADF82
:100B3000A0F3959FD1F3950F50E0551F629FF001F0
:100B4000729FBB27F00DB11D639FAA27F00DB11D49
:100B5000AA1F649F6627B00DA11D661F829F2227D2
:100B6000B00DA11D621F739FB00DA11D621F839F59
:100B7000A00D611D221F749F3327A00D611D231F2F
:100B8000849F600D211D822F762F6A2F11249F577D
:100B900050408AF0E1F088234AF0EE0FFF1FBB1FA0
:100BA000661F771F881F91505040A9F79E3F51053F
:100BB00070F060CFAACF5F3FECF3983EDCF38695F0
:100BC00077956795B795F795E7959F5FC1F7FE2BEA
:100BD000880F911D9695879597F90895991B79E04F
:100BE00004C0991F961708F0961B881F7A95C9F7BD
:100BF00080950895AA1BBB1B51E107C0AA1FBB1F0C
:100C0000A617B70710F0A61BB70B881F991F5A9598
:100C1000A9F780959095BC01CD010895A1E21A2E07
:100C2000AA1BBB1BFD010DC0AA1FBB1FEE1FFF1F90
:100C3000A217B307E407F50720F0A21BB30BE40BE0
:100C4000F50B661F771F881F991F1A9469F7609527
:100C50007095809590959B01AC01BD01CF010895E1
:040C6000F894FFCF36
:00000001FF
